{
  "_format": "hh-sol-artifact-1",
  "contractName": "AccreditationEndpoint",
  "sourceName": "contracts/endpoints/AccreditationEndpoint.sol",
  "abi": [
    {
      "inputs": [
        {
          "internalType": "address",
          "name": "accreditationStorageAddress",
          "type": "address"
        },
        {
          "internalType": "address",
          "name": "accreditationNFTAddress",
          "type": "address"
        }
      ],
      "stateMutability": "nonpayable",
      "type": "constructor"
    },
    {
      "inputs": [
        {
          "internalType": "uint256",
          "name": "id",
          "type": "uint256"
        }
      ],
      "name": "getAccreditationById",
      "outputs": [
        {
          "components": [
            {
              "internalType": "uint256",
              "name": "id",
              "type": "uint256"
            },
            {
              "internalType": "address payable",
              "name": "issuer",
              "type": "address"
            },
            {
              "internalType": "string",
              "name": "title",
              "type": "string"
            },
            {
              "internalType": "uint256",
              "name": "createdAt",
              "type": "uint256"
            },
            {
              "internalType": "uint256",
              "name": "duration",
              "type": "uint256"
            },
            {
              "internalType": "string",
              "name": "nature",
              "type": "string"
            },
            {
              "internalType": "string",
              "name": "description",
              "type": "string"
            },
            {
              "internalType": "bool",
              "name": "isRevoked",
              "type": "bool"
            },
            {
              "internalType": "string",
              "name": "revokeReason",
              "type": "string"
            },
            {
              "internalType": "uint256",
              "name": "revokeTime",
              "type": "uint256"
            }
          ],
          "internalType": "struct Accreditation",
          "name": "",
          "type": "tuple"
        }
      ],
      "stateMutability": "view",
      "type": "function"
    },
    {
      "inputs": [
        {
          "internalType": "address payable",
          "name": "inputAddress",
          "type": "address"
        }
      ],
      "name": "getAccreditationsByAddress",
      "outputs": [
        {
          "components": [
            {
              "internalType": "uint256",
              "name": "id",
              "type": "uint256"
            },
            {
              "internalType": "address payable",
              "name": "issuer",
              "type": "address"
            },
            {
              "internalType": "string",
              "name": "title",
              "type": "string"
            },
            {
              "internalType": "uint256",
              "name": "createdAt",
              "type": "uint256"
            },
            {
              "internalType": "uint256",
              "name": "duration",
              "type": "uint256"
            },
            {
              "internalType": "string",
              "name": "nature",
              "type": "string"
            },
            {
              "internalType": "string",
              "name": "description",
              "type": "string"
            },
            {
              "internalType": "bool",
              "name": "isRevoked",
              "type": "bool"
            },
            {
              "internalType": "string",
              "name": "revokeReason",
              "type": "string"
            },
            {
              "internalType": "uint256",
              "name": "revokeTime",
              "type": "uint256"
            }
          ],
          "internalType": "struct Accreditation[]",
          "name": "",
          "type": "tuple[]"
        }
      ],
      "stateMutability": "view",
      "type": "function"
    },
    {
      "inputs": [
        {
          "internalType": "address payable",
          "name": "issuer",
          "type": "address"
        },
        {
          "internalType": "string",
          "name": "title",
          "type": "string"
        },
        {
          "internalType": "uint256",
          "name": "createdAt",
          "type": "uint256"
        },
        {
          "internalType": "uint256",
          "name": "duration",
          "type": "uint256"
        },
        {
          "internalType": "string",
          "name": "nature",
          "type": "string"
        },
        {
          "internalType": "string",
          "name": "description",
          "type": "string"
        }
      ],
      "name": "launchAccreditation",
      "outputs": [
        {
          "internalType": "uint256",
          "name": "",
          "type": "uint256"
        }
      ],
      "stateMutability": "nonpayable",
      "type": "function"
    }
  ],
  "bytecode": "0x60806040523480156200001157600080fd5b5060405162001429380380620014298339818101604052810190620000379190620001ed565b336000806101000a81548173ffffffffffffffffffffffffffffffffffffffff021916908373ffffffffffffffffffffffffffffffffffffffff16021790555081600160006101000a81548173ffffffffffffffffffffffffffffffffffffffff021916908373ffffffffffffffffffffffffffffffffffffffff16021790555080600260006101000a81548173ffffffffffffffffffffffffffffffffffffffff021916908373ffffffffffffffffffffffffffffffffffffffff16021790555081600360006101000a81548173ffffffffffffffffffffffffffffffffffffffff021916908373ffffffffffffffffffffffffffffffffffffffff16021790555080600460006101000a81548173ffffffffffffffffffffffffffffffffffffffff021916908373ffffffffffffffffffffffffffffffffffffffff160217905550505062000234565b600080fd5b600073ffffffffffffffffffffffffffffffffffffffff82169050919050565b6000620001b58262000188565b9050919050565b620001c781620001a8565b8114620001d357600080fd5b50565b600081519050620001e781620001bc565b92915050565b6000806040838503121562000207576200020662000183565b5b60006200021785828601620001d6565b92505060206200022a85828601620001d6565b9150509250929050565b6111e580620002446000396000f3fe608060405234801561001057600080fd5b50600436106100415760003560e01c80632925125214610046578063697c532a1461007657806387dbedfd146100a6575b600080fd5b610060600480360381019061005b9190610725565b6100d6565b60405161006d9190610815565b60405180910390f35b610090600480360381019061008b9190610830565b6102a6565b60405161009d9190610acf565b60405180910390f35b6100c060048036038101906100bb9190610af1565b61035f565b6040516100cd9190610c0d565b60405180910390f35b60008583836040516020016100ea90610c60565b60405160208183030381529060405280519060200120836040516020016101119190610ca6565b60405160208183030381529060405280519060200120141561013257600080fd5b60405160200161014190610c60565b60405160208183030381529060405280519060200120826040516020016101689190610ca6565b60405160208183030381529060405280519060200120141561018957600080fd5b60405160200161019890610c60565b60405160208183030381529060405280519060200120816040516020016101bf9190610ca6565b6040516020818303038152906040528051906020012014156101e057600080fd5b600460009054906101000a900473ffffffffffffffffffffffffffffffffffffffff1673ffffffffffffffffffffffffffffffffffffffff1663292512528b8b8b8b8b8b6040518763ffffffff1660e01b815260040161024596959493929190610d16565b602060405180830381600087803b15801561025f57600080fd5b505af1158015610273573d6000803e3d6000fd5b505050506040513d601f19601f820116820180604052508101906102979190610da1565b93505050509695505050505050565b6060600360009054906101000a900473ffffffffffffffffffffffffffffffffffffffff1673ffffffffffffffffffffffffffffffffffffffff1663697c532a836040518263ffffffff1660e01b81526004016103039190610dce565b60006040518083038186803b15801561031b57600080fd5b505afa15801561032f573d6000803e3d6000fd5b505050506040513d6000823e3d601f19601f8201168201806040525081019061035891906110f0565b9050919050565b6103676104cc565b81600460009054906101000a900473ffffffffffffffffffffffffffffffffffffffff1673ffffffffffffffffffffffffffffffffffffffff16633c0b9c78826040518263ffffffff1660e01b81526004016103c39190610815565b60206040518083038186803b1580156103db57600080fd5b505afa1580156103ef573d6000803e3d6000fd5b505050506040513d601f19601f820116820180604052508101906104139190611139565b50600360009054906101000a900473ffffffffffffffffffffffffffffffffffffffff1673ffffffffffffffffffffffffffffffffffffffff166387dbedfd846040518263ffffffff1660e01b815260040161046f9190610815565b60006040518083038186803b15801561048757600080fd5b505afa15801561049b573d6000803e3d6000fd5b505050506040513d6000823e3d601f19601f820116820180604052508101906104c49190611166565b915050919050565b60405180610140016040528060008152602001600073ffffffffffffffffffffffffffffffffffffffff168152602001606081526020016000815260200160008152602001606081526020016060815260200160001515815260200160608152602001600081525090565b6000604051905090565b600080fd5b600080fd5b600073ffffffffffffffffffffffffffffffffffffffff82169050919050565b60006105768261054b565b9050919050565b6105868161056b565b811461059157600080fd5b50565b6000813590506105a38161057d565b92915050565b600080fd5b600080fd5b6000601f19601f8301169050919050565b7f4e487b7100000000000000000000000000000000000000000000000000000000600052604160045260246000fd5b6105fc826105b3565b810181811067ffffffffffffffff8211171561061b5761061a6105c4565b5b80604052505050565b600061062e610537565b905061063a82826105f3565b919050565b600067ffffffffffffffff82111561065a576106596105c4565b5b610663826105b3565b9050602081019050919050565b82818337600083830152505050565b600061069261068d8461063f565b610624565b9050828152602081018484840111156106ae576106ad6105ae565b5b6106b9848285610670565b509392505050565b600082601f8301126106d6576106d56105a9565b5b81356106e684826020860161067f565b91505092915050565b6000819050919050565b610702816106ef565b811461070d57600080fd5b50565b60008135905061071f816106f9565b92915050565b60008060008060008060c0878903121561074257610741610541565b5b600061075089828a01610594565b965050602087013567ffffffffffffffff81111561077157610770610546565b5b61077d89828a016106c1565b955050604061078e89828a01610710565b945050606061079f89828a01610710565b935050608087013567ffffffffffffffff8111156107c0576107bf610546565b5b6107cc89828a016106c1565b92505060a087013567ffffffffffffffff8111156107ed576107ec610546565b5b6107f989828a016106c1565b9150509295509295509295565b61080f816106ef565b82525050565b600060208201905061082a6000830184610806565b92915050565b60006020828403121561084657610845610541565b5b600061085484828501610594565b91505092915050565b600081519050919050565b600082825260208201905092915050565b6000819050602082019050919050565b610892816106ef565b82525050565b6108a18161056b565b82525050565b600081519050919050565b600082825260208201905092915050565b60005b838110156108e15780820151818401526020810190506108c6565b838111156108f0576000848401525b50505050565b6000610901826108a7565b61090b81856108b2565b935061091b8185602086016108c3565b610924816105b3565b840191505092915050565b60008115159050919050565b6109448161092f565b82525050565b6000610140830160008301516109636000860182610889565b5060208301516109766020860182610898565b506040830151848203604086015261098e82826108f6565b91505060608301516109a36060860182610889565b5060808301516109b66080860182610889565b5060a083015184820360a08601526109ce82826108f6565b91505060c083015184820360c08601526109e882826108f6565b91505060e08301516109fd60e086018261093b565b50610100830151848203610100860152610a1782826108f6565b915050610120830151610a2e610120860182610889565b508091505092915050565b6000610a45838361094a565b905092915050565b6000602082019050919050565b6000610a658261085d565b610a6f8185610868565b935083602082028501610a8185610879565b8060005b85811015610abd5784840389528151610a9e8582610a39565b9450610aa983610a4d565b925060208a01995050600181019050610a85565b50829750879550505050505092915050565b60006020820190508181036000830152610ae98184610a5a565b905092915050565b600060208284031215610b0757610b06610541565b5b6000610b1584828501610710565b91505092915050565b600061014083016000830151610b376000860182610889565b506020830151610b4a6020860182610898565b5060408301518482036040860152610b6282826108f6565b9150506060830151610b776060860182610889565b506080830151610b8a6080860182610889565b5060a083015184820360a0860152610ba282826108f6565b91505060c083015184820360c0860152610bbc82826108f6565b91505060e0830151610bd160e086018261093b565b50610100830151848203610100860152610beb82826108f6565b915050610120830151610c02610120860182610889565b508091505092915050565b60006020820190508181036000830152610c278184610b1e565b905092915050565b600081905092915050565b50565b6000610c4a600083610c2f565b9150610c5582610c3a565b600082019050919050565b6000610c6b82610c3d565b9150819050919050565b6000610c80826108a7565b610c8a8185610c2f565b9350610c9a8185602086016108c3565b80840191505092915050565b6000610cb28284610c75565b915081905092915050565b610cc68161056b565b82525050565b600082825260208201905092915050565b6000610ce8826108a7565b610cf28185610ccc565b9350610d028185602086016108c3565b610d0b816105b3565b840191505092915050565b600060c082019050610d2b6000830189610cbd565b8181036020830152610d3d8188610cdd565b9050610d4c6040830187610806565b610d596060830186610806565b8181036080830152610d6b8185610cdd565b905081810360a0830152610d7f8184610cdd565b9050979650505050505050565b600081519050610d9b816106f9565b92915050565b600060208284031215610db757610db6610541565b5b6000610dc584828501610d8c565b91505092915050565b6000602082019050610de36000830184610cbd565b92915050565b600067ffffffffffffffff821115610e0457610e036105c4565b5b602082029050602081019050919050565b600080fd5b600080fd5b600080fd5b600081519050610e338161057d565b92915050565b6000610e4c610e478461063f565b610624565b905082815260208101848484011115610e6857610e676105ae565b5b610e738482856108c3565b509392505050565b600082601f830112610e9057610e8f6105a9565b5b8151610ea0848260208601610e39565b91505092915050565b610eb28161092f565b8114610ebd57600080fd5b50565b600081519050610ecf81610ea9565b92915050565b60006101408284031215610eec57610eeb610e1a565b5b610ef7610140610624565b90506000610f0784828501610d8c565b6000830152506020610f1b84828501610e24565b602083015250604082015167ffffffffffffffff811115610f3f57610f3e610e1f565b5b610f4b84828501610e7b565b6040830152506060610f5f84828501610d8c565b6060830152506080610f7384828501610d8c565b60808301525060a082015167ffffffffffffffff811115610f9757610f96610e1f565b5b610fa384828501610e7b565b60a08301525060c082015167ffffffffffffffff811115610fc757610fc6610e1f565b5b610fd384828501610e7b565b60c08301525060e0610fe784828501610ec0565b60e08301525061010082015167ffffffffffffffff81111561100c5761100b610e1f565b5b61101884828501610e7b565b6101008301525061012061102e84828501610d8c565b6101208301525092915050565b600061104e61104984610de9565b610624565b9050808382526020820190506020840283018581111561107157611070610e15565b5b835b818110156110b857805167ffffffffffffffff811115611096576110956105a9565b5b8086016110a38982610ed5565b85526020850194505050602081019050611073565b5050509392505050565b600082601f8301126110d7576110d66105a9565b5b81516110e784826020860161103b565b91505092915050565b60006020828403121561110657611105610541565b5b600082015167ffffffffffffffff81111561112457611123610546565b5b611130848285016110c2565b91505092915050565b60006020828403121561114f5761114e610541565b5b600061115d84828501610ec0565b91505092915050565b60006020828403121561117c5761117b610541565b5b600082015167ffffffffffffffff81111561119a57611199610546565b5b6111a684828501610ed5565b9150509291505056fea264697066735822122009402eda2ea70b5a1f14f38578b94d63088ab1c1e0fef4e15b10286cfcfed46064736f6c63430008090033",
  "linkReferences": {},
  "deployedLinkReferences": {}
}