{
  "_format": "hh-sol-artifact-1",
  "contractName": "AccreditationEndpoint",
  "sourceName": "contracts/endpoints/AccreditationEndpoint.sol",
  "abi": [
    {
      "inputs": [
        {
          "internalType": "address",
          "name": "accreditationStorageAddress",
          "type": "address"
        },
        {
          "internalType": "address",
          "name": "accreditationNFTAddress",
          "type": "address"
        }
      ],
      "stateMutability": "nonpayable",
      "type": "constructor"
    },
    {
      "anonymous": false,
      "inputs": [
        {
          "indexed": false,
          "internalType": "uint256",
          "name": "id",
          "type": "uint256"
        },
        {
          "indexed": false,
          "internalType": "address payable",
          "name": "issuer",
          "type": "address"
        },
        {
          "indexed": false,
          "internalType": "string",
          "name": "title",
          "type": "string"
        },
        {
          "indexed": false,
          "internalType": "uint256",
          "name": "createdAt",
          "type": "uint256"
        },
        {
          "indexed": false,
          "internalType": "uint256",
          "name": "duration",
          "type": "uint256"
        },
        {
          "indexed": false,
          "internalType": "string",
          "name": "nature",
          "type": "string"
        },
        {
          "indexed": false,
          "internalType": "string",
          "name": "description",
          "type": "string"
        }
      ],
      "name": "LaunchAccreditation",
      "type": "event"
    },
    {
      "inputs": [
        {
          "internalType": "uint256",
          "name": "id",
          "type": "uint256"
        }
      ],
      "name": "getAccreditationById",
      "outputs": [
        {
          "components": [
            {
              "internalType": "uint256",
              "name": "id",
              "type": "uint256"
            },
            {
              "internalType": "address payable",
              "name": "issuer",
              "type": "address"
            },
            {
              "internalType": "string",
              "name": "title",
              "type": "string"
            },
            {
              "internalType": "uint256",
              "name": "createdAt",
              "type": "uint256"
            },
            {
              "internalType": "uint256",
              "name": "duration",
              "type": "uint256"
            },
            {
              "internalType": "string",
              "name": "nature",
              "type": "string"
            },
            {
              "internalType": "string",
              "name": "description",
              "type": "string"
            },
            {
              "internalType": "bool",
              "name": "isRevoked",
              "type": "bool"
            },
            {
              "internalType": "string",
              "name": "revokeReason",
              "type": "string"
            },
            {
              "internalType": "uint256",
              "name": "revokeTime",
              "type": "uint256"
            }
          ],
          "internalType": "struct Accreditation",
          "name": "",
          "type": "tuple"
        }
      ],
      "stateMutability": "view",
      "type": "function"
    },
    {
      "inputs": [
        {
          "internalType": "address payable",
          "name": "inputAddress",
          "type": "address"
        }
      ],
      "name": "getAccreditationsByIssuerAddress",
      "outputs": [
        {
          "components": [
            {
              "internalType": "uint256",
              "name": "id",
              "type": "uint256"
            },
            {
              "internalType": "address payable",
              "name": "issuer",
              "type": "address"
            },
            {
              "internalType": "string",
              "name": "title",
              "type": "string"
            },
            {
              "internalType": "uint256",
              "name": "createdAt",
              "type": "uint256"
            },
            {
              "internalType": "uint256",
              "name": "duration",
              "type": "uint256"
            },
            {
              "internalType": "string",
              "name": "nature",
              "type": "string"
            },
            {
              "internalType": "string",
              "name": "description",
              "type": "string"
            },
            {
              "internalType": "bool",
              "name": "isRevoked",
              "type": "bool"
            },
            {
              "internalType": "string",
              "name": "revokeReason",
              "type": "string"
            },
            {
              "internalType": "uint256",
              "name": "revokeTime",
              "type": "uint256"
            }
          ],
          "internalType": "struct Accreditation[]",
          "name": "",
          "type": "tuple[]"
        }
      ],
      "stateMutability": "view",
      "type": "function"
    },
    {
      "inputs": [
        {
          "internalType": "string",
          "name": "title",
          "type": "string"
        },
        {
          "internalType": "uint256",
          "name": "createdAt",
          "type": "uint256"
        },
        {
          "internalType": "uint256",
          "name": "duration",
          "type": "uint256"
        },
        {
          "internalType": "string",
          "name": "nature",
          "type": "string"
        },
        {
          "internalType": "string",
          "name": "description",
          "type": "string"
        }
      ],
      "name": "launchAccreditation",
      "outputs": [],
      "stateMutability": "nonpayable",
      "type": "function"
    }
  ],
  "bytecode": "0x60806040523480156200001157600080fd5b50604051620014ce380380620014ce8339818101604052810190620000379190620001ed565b336000806101000a81548173ffffffffffffffffffffffffffffffffffffffff021916908373ffffffffffffffffffffffffffffffffffffffff16021790555081600160006101000a81548173ffffffffffffffffffffffffffffffffffffffff021916908373ffffffffffffffffffffffffffffffffffffffff16021790555080600260006101000a81548173ffffffffffffffffffffffffffffffffffffffff021916908373ffffffffffffffffffffffffffffffffffffffff16021790555081600360006101000a81548173ffffffffffffffffffffffffffffffffffffffff021916908373ffffffffffffffffffffffffffffffffffffffff16021790555080600460006101000a81548173ffffffffffffffffffffffffffffffffffffffff021916908373ffffffffffffffffffffffffffffffffffffffff160217905550505062000234565b600080fd5b600073ffffffffffffffffffffffffffffffffffffffff82169050919050565b6000620001b58262000188565b9050919050565b620001c781620001a8565b8114620001d357600080fd5b50565b600081519050620001e781620001bc565b92915050565b6000806040838503121562000207576200020662000183565b5b60006200021785828601620001d6565b92505060206200022a85828601620001d6565b9150509250929050565b61128a80620002446000396000f3fe608060405234801561001057600080fd5b50600436106100415760003560e01c80631f0bfb9b1461004657806387dbedfd14610062578063cb69fcd514610092575b600080fd5b610060600480360381019061005b91906106fa565b6100c2565b005b61007c600480360381019061007791906107c9565b6102d9565b60405161008991906109d8565b60405180910390f35b6100ac60048036038101906100a79190610a26565b610446565b6040516100b99190610c04565b60405180910390f35b8482826040516020016100d490610c57565b60405160208183030381529060405280519060200120836040516020016100fb9190610c9d565b60405160208183030381529060405280519060200120141561011c57600080fd5b60405160200161012b90610c57565b60405160208183030381529060405280519060200120826040516020016101529190610c9d565b60405160208183030381529060405280519060200120141561017357600080fd5b60405160200161018290610c57565b60405160208183030381529060405280519060200120816040516020016101a99190610c9d565b6040516020818303038152906040528051906020012014156101ca57600080fd5b60003390506000600460009054906101000a900473ffffffffffffffffffffffffffffffffffffffff1673ffffffffffffffffffffffffffffffffffffffff166329251252838c8c8c8c8c6040518763ffffffff1660e01b815260040161023696959493929190610d1c565b602060405180830381600087803b15801561025057600080fd5b505af1158015610264573d6000803e3d6000fd5b505050506040513d601f19601f820116820180604052508101906102889190610da7565b90507f1ba9c4ef90766d74a26b650222674bcc06384ec922f86101e9438f3362c4fad581838c8c8c8c8c6040516102c59796959493929190610dd4565b60405180910390a150505050505050505050565b6102e16104ff565b81600460009054906101000a900473ffffffffffffffffffffffffffffffffffffffff1673ffffffffffffffffffffffffffffffffffffffff16633c0b9c78826040518263ffffffff1660e01b815260040161033d9190610e58565b60206040518083038186803b15801561035557600080fd5b505afa158015610369573d6000803e3d6000fd5b505050506040513d601f19601f8201168201806040525081019061038d9190610e9f565b50600360009054906101000a900473ffffffffffffffffffffffffffffffffffffffff1673ffffffffffffffffffffffffffffffffffffffff166387dbedfd846040518263ffffffff1660e01b81526004016103e99190610e58565b60006040518083038186803b15801561040157600080fd5b505afa158015610415573d6000803e3d6000fd5b505050506040513d6000823e3d601f19601f8201168201806040525081019061043e91906110c1565b915050919050565b6060600360009054906101000a900473ffffffffffffffffffffffffffffffffffffffff1673ffffffffffffffffffffffffffffffffffffffff1663cb69fcd5836040518263ffffffff1660e01b81526004016104a3919061110a565b60006040518083038186803b1580156104bb57600080fd5b505afa1580156104cf573d6000803e3d6000fd5b505050506040513d6000823e3d601f19601f820116820180604052508101906104f8919061120b565b9050919050565b60405180610140016040528060008152602001600073ffffffffffffffffffffffffffffffffffffffff168152602001606081526020016000815260200160008152602001606081526020016060815260200160001515815260200160608152602001600081525090565b6000604051905090565b600080fd5b600080fd5b600080fd5b600080fd5b6000601f19601f8301169050919050565b7f4e487b7100000000000000000000000000000000000000000000000000000000600052604160045260246000fd5b6105d182610588565b810181811067ffffffffffffffff821117156105f0576105ef610599565b5b80604052505050565b600061060361056a565b905061060f82826105c8565b919050565b600067ffffffffffffffff82111561062f5761062e610599565b5b61063882610588565b9050602081019050919050565b82818337600083830152505050565b600061066761066284610614565b6105f9565b90508281526020810184848401111561068357610682610583565b5b61068e848285610645565b509392505050565b600082601f8301126106ab576106aa61057e565b5b81356106bb848260208601610654565b91505092915050565b6000819050919050565b6106d7816106c4565b81146106e257600080fd5b50565b6000813590506106f4816106ce565b92915050565b600080600080600060a0868803121561071657610715610574565b5b600086013567ffffffffffffffff81111561073457610733610579565b5b61074088828901610696565b9550506020610751888289016106e5565b9450506040610762888289016106e5565b935050606086013567ffffffffffffffff81111561078357610782610579565b5b61078f88828901610696565b925050608086013567ffffffffffffffff8111156107b0576107af610579565b5b6107bc88828901610696565b9150509295509295909350565b6000602082840312156107df576107de610574565b5b60006107ed848285016106e5565b91505092915050565b6107ff816106c4565b82525050565b600073ffffffffffffffffffffffffffffffffffffffff82169050919050565b600061083082610805565b9050919050565b61084081610825565b82525050565b600081519050919050565b600082825260208201905092915050565b60005b83811015610880578082015181840152602081019050610865565b8381111561088f576000848401525b50505050565b60006108a082610846565b6108aa8185610851565b93506108ba818560208601610862565b6108c381610588565b840191505092915050565b60008115159050919050565b6108e3816108ce565b82525050565b60006101408301600083015161090260008601826107f6565b5060208301516109156020860182610837565b506040830151848203604086015261092d8282610895565b915050606083015161094260608601826107f6565b50608083015161095560808601826107f6565b5060a083015184820360a086015261096d8282610895565b91505060c083015184820360c08601526109878282610895565b91505060e083015161099c60e08601826108da565b506101008301518482036101008601526109b68282610895565b9150506101208301516109cd6101208601826107f6565b508091505092915050565b600060208201905081810360008301526109f281846108e9565b905092915050565b610a0381610825565b8114610a0e57600080fd5b50565b600081359050610a20816109fa565b92915050565b600060208284031215610a3c57610a3b610574565b5b6000610a4a84828501610a11565b91505092915050565b600081519050919050565b600082825260208201905092915050565b6000819050602082019050919050565b600061014083016000830151610a9860008601826107f6565b506020830151610aab6020860182610837565b5060408301518482036040860152610ac38282610895565b9150506060830151610ad860608601826107f6565b506080830151610aeb60808601826107f6565b5060a083015184820360a0860152610b038282610895565b91505060c083015184820360c0860152610b1d8282610895565b91505060e0830151610b3260e08601826108da565b50610100830151848203610100860152610b4c8282610895565b915050610120830151610b636101208601826107f6565b508091505092915050565b6000610b7a8383610a7f565b905092915050565b6000602082019050919050565b6000610b9a82610a53565b610ba48185610a5e565b935083602082028501610bb685610a6f565b8060005b85811015610bf25784840389528151610bd38582610b6e565b9450610bde83610b82565b925060208a01995050600181019050610bba565b50829750879550505050505092915050565b60006020820190508181036000830152610c1e8184610b8f565b905092915050565b600081905092915050565b50565b6000610c41600083610c26565b9150610c4c82610c31565b600082019050919050565b6000610c6282610c34565b9150819050919050565b6000610c7782610846565b610c818185610c26565b9350610c91818560208601610862565b80840191505092915050565b6000610ca98284610c6c565b915081905092915050565b610cbd81610825565b82525050565b600082825260208201905092915050565b6000610cdf82610846565b610ce98185610cc3565b9350610cf9818560208601610862565b610d0281610588565b840191505092915050565b610d16816106c4565b82525050565b600060c082019050610d316000830189610cb4565b8181036020830152610d438188610cd4565b9050610d526040830187610d0d565b610d5f6060830186610d0d565b8181036080830152610d718185610cd4565b905081810360a0830152610d858184610cd4565b9050979650505050505050565b600081519050610da1816106ce565b92915050565b600060208284031215610dbd57610dbc610574565b5b6000610dcb84828501610d92565b91505092915050565b600060e082019050610de9600083018a610d0d565b610df66020830189610cb4565b8181036040830152610e088188610cd4565b9050610e176060830187610d0d565b610e246080830186610d0d565b81810360a0830152610e368185610cd4565b905081810360c0830152610e4a8184610cd4565b905098975050505050505050565b6000602082019050610e6d6000830184610d0d565b92915050565b610e7c816108ce565b8114610e8757600080fd5b50565b600081519050610e9981610e73565b92915050565b600060208284031215610eb557610eb4610574565b5b6000610ec384828501610e8a565b91505092915050565b600080fd5b600080fd5b600081519050610ee5816109fa565b92915050565b6000610efe610ef984610614565b6105f9565b905082815260208101848484011115610f1a57610f19610583565b5b610f25848285610862565b509392505050565b600082601f830112610f4257610f4161057e565b5b8151610f52848260208601610eeb565b91505092915050565b60006101408284031215610f7257610f71610ecc565b5b610f7d6101406105f9565b90506000610f8d84828501610d92565b6000830152506020610fa184828501610ed6565b602083015250604082015167ffffffffffffffff811115610fc557610fc4610ed1565b5b610fd184828501610f2d565b6040830152506060610fe584828501610d92565b6060830152506080610ff984828501610d92565b60808301525060a082015167ffffffffffffffff81111561101d5761101c610ed1565b5b61102984828501610f2d565b60a08301525060c082015167ffffffffffffffff81111561104d5761104c610ed1565b5b61105984828501610f2d565b60c08301525060e061106d84828501610e8a565b60e08301525061010082015167ffffffffffffffff81111561109257611091610ed1565b5b61109e84828501610f2d565b610100830152506101206110b484828501610d92565b6101208301525092915050565b6000602082840312156110d7576110d6610574565b5b600082015167ffffffffffffffff8111156110f5576110f4610579565b5b61110184828501610f5b565b91505092915050565b600060208201905061111f6000830184610cb4565b92915050565b600067ffffffffffffffff8211156111405761113f610599565b5b602082029050602081019050919050565b600080fd5b600061116961116484611125565b6105f9565b9050808382526020820190506020840283018581111561118c5761118b611151565b5b835b818110156111d357805167ffffffffffffffff8111156111b1576111b061057e565b5b8086016111be8982610f5b565b8552602085019450505060208101905061118e565b5050509392505050565b600082601f8301126111f2576111f161057e565b5b8151611202848260208601611156565b91505092915050565b60006020828403121561122157611220610574565b5b600082015167ffffffffffffffff81111561123f5761123e610579565b5b61124b848285016111dd565b9150509291505056fea26469706673582212201256bf623efc85b4913a587411e32b55528bf61445ab061befa26b5fd97537b264736f6c63430008090033",
  "linkReferences": {},
  "deployedLinkReferences": {}
}