{
  "_format": "hh-sol-artifact-1",
  "contractName": "AccreditationEndpoint",
  "sourceName": "contracts/endpoints/AccreditationEndpoint.sol",
  "abi": [
    {
      "inputs": [
        {
          "internalType": "address",
          "name": "accreditationStorageAddress",
          "type": "address"
        },
        {
          "internalType": "address",
          "name": "accreditationNFTAddress",
          "type": "address"
        }
      ],
      "stateMutability": "nonpayable",
      "type": "constructor"
    },
    {
      "inputs": [
        {
          "internalType": "uint256",
          "name": "id",
          "type": "uint256"
        }
      ],
      "name": "getAccreditationById",
      "outputs": [
        {
          "components": [
            {
              "internalType": "uint256",
              "name": "id",
              "type": "uint256"
            },
            {
              "internalType": "address payable",
              "name": "issuer",
              "type": "address"
            },
            {
              "internalType": "string",
              "name": "title",
              "type": "string"
            },
            {
              "internalType": "uint256",
              "name": "createdAt",
              "type": "uint256"
            },
            {
              "internalType": "uint256",
              "name": "duration",
              "type": "uint256"
            },
            {
              "internalType": "string",
              "name": "nature",
              "type": "string"
            },
            {
              "internalType": "string",
              "name": "description",
              "type": "string"
            },
            {
              "internalType": "bool",
              "name": "isRevoked",
              "type": "bool"
            },
            {
              "internalType": "string",
              "name": "revokeReason",
              "type": "string"
            },
            {
              "internalType": "uint256",
              "name": "revokeTime",
              "type": "uint256"
            }
          ],
          "internalType": "struct Accreditation",
          "name": "",
          "type": "tuple"
        }
      ],
      "stateMutability": "view",
      "type": "function"
    },
    {
      "inputs": [
        {
          "internalType": "address payable",
          "name": "inputAddress",
          "type": "address"
        }
      ],
      "name": "getAccreditationsByIssuerAddress",
      "outputs": [
        {
          "components": [
            {
              "internalType": "uint256",
              "name": "id",
              "type": "uint256"
            },
            {
              "internalType": "address payable",
              "name": "issuer",
              "type": "address"
            },
            {
              "internalType": "string",
              "name": "title",
              "type": "string"
            },
            {
              "internalType": "uint256",
              "name": "createdAt",
              "type": "uint256"
            },
            {
              "internalType": "uint256",
              "name": "duration",
              "type": "uint256"
            },
            {
              "internalType": "string",
              "name": "nature",
              "type": "string"
            },
            {
              "internalType": "string",
              "name": "description",
              "type": "string"
            },
            {
              "internalType": "bool",
              "name": "isRevoked",
              "type": "bool"
            },
            {
              "internalType": "string",
              "name": "revokeReason",
              "type": "string"
            },
            {
              "internalType": "uint256",
              "name": "revokeTime",
              "type": "uint256"
            }
          ],
          "internalType": "struct Accreditation[]",
          "name": "",
          "type": "tuple[]"
        }
      ],
      "stateMutability": "view",
      "type": "function"
    },
    {
      "inputs": [
        {
          "internalType": "address payable",
          "name": "issuer",
          "type": "address"
        },
        {
          "internalType": "string",
          "name": "title",
          "type": "string"
        },
        {
          "internalType": "uint256",
          "name": "createdAt",
          "type": "uint256"
        },
        {
          "internalType": "uint256",
          "name": "duration",
          "type": "uint256"
        },
        {
          "internalType": "string",
          "name": "nature",
          "type": "string"
        },
        {
          "internalType": "string",
          "name": "description",
          "type": "string"
        }
      ],
      "name": "launchAccreditation",
      "outputs": [
        {
          "internalType": "uint256",
          "name": "",
          "type": "uint256"
        }
      ],
      "stateMutability": "nonpayable",
      "type": "function"
    }
  ],
  "bytecode": "0x60806040523480156200001157600080fd5b5060405162001429380380620014298339818101604052810190620000379190620001ed565b336000806101000a81548173ffffffffffffffffffffffffffffffffffffffff021916908373ffffffffffffffffffffffffffffffffffffffff16021790555081600160006101000a81548173ffffffffffffffffffffffffffffffffffffffff021916908373ffffffffffffffffffffffffffffffffffffffff16021790555080600260006101000a81548173ffffffffffffffffffffffffffffffffffffffff021916908373ffffffffffffffffffffffffffffffffffffffff16021790555081600360006101000a81548173ffffffffffffffffffffffffffffffffffffffff021916908373ffffffffffffffffffffffffffffffffffffffff16021790555080600460006101000a81548173ffffffffffffffffffffffffffffffffffffffff021916908373ffffffffffffffffffffffffffffffffffffffff160217905550505062000234565b600080fd5b600073ffffffffffffffffffffffffffffffffffffffff82169050919050565b6000620001b58262000188565b9050919050565b620001c781620001a8565b8114620001d357600080fd5b50565b600081519050620001e781620001bc565b92915050565b6000806040838503121562000207576200020662000183565b5b60006200021785828601620001d6565b92505060206200022a85828601620001d6565b9150509250929050565b6111e580620002446000396000f3fe608060405234801561001057600080fd5b50600436106100415760003560e01c8063292512521461004657806387dbedfd14610076578063cb69fcd5146100a6575b600080fd5b610060600480360381019061005b9190610725565b6100d6565b60405161006d9190610815565b60405180910390f35b610090600480360381019061008b9190610830565b6102a6565b60405161009d9190610a0d565b60405180910390f35b6100c060048036038101906100bb9190610a2f565b610413565b6040516100cd9190610c0d565b60405180910390f35b60008583836040516020016100ea90610c60565b60405160208183030381529060405280519060200120836040516020016101119190610ca6565b60405160208183030381529060405280519060200120141561013257600080fd5b60405160200161014190610c60565b60405160208183030381529060405280519060200120826040516020016101689190610ca6565b60405160208183030381529060405280519060200120141561018957600080fd5b60405160200161019890610c60565b60405160208183030381529060405280519060200120816040516020016101bf9190610ca6565b6040516020818303038152906040528051906020012014156101e057600080fd5b600460009054906101000a900473ffffffffffffffffffffffffffffffffffffffff1673ffffffffffffffffffffffffffffffffffffffff1663292512528b8b8b8b8b8b6040518763ffffffff1660e01b815260040161024596959493929190610d16565b602060405180830381600087803b15801561025f57600080fd5b505af1158015610273573d6000803e3d6000fd5b505050506040513d601f19601f820116820180604052508101906102979190610da1565b93505050509695505050505050565b6102ae6104cc565b81600460009054906101000a900473ffffffffffffffffffffffffffffffffffffffff1673ffffffffffffffffffffffffffffffffffffffff16633c0b9c78826040518263ffffffff1660e01b815260040161030a9190610815565b60206040518083038186803b15801561032257600080fd5b505afa158015610336573d6000803e3d6000fd5b505050506040513d601f19601f8201168201806040525081019061035a9190610dfa565b50600360009054906101000a900473ffffffffffffffffffffffffffffffffffffffff1673ffffffffffffffffffffffffffffffffffffffff166387dbedfd846040518263ffffffff1660e01b81526004016103b69190610815565b60006040518083038186803b1580156103ce57600080fd5b505afa1580156103e2573d6000803e3d6000fd5b505050506040513d6000823e3d601f19601f8201168201806040525081019061040b919061101c565b915050919050565b6060600360009054906101000a900473ffffffffffffffffffffffffffffffffffffffff1673ffffffffffffffffffffffffffffffffffffffff1663cb69fcd5836040518263ffffffff1660e01b81526004016104709190611065565b60006040518083038186803b15801561048857600080fd5b505afa15801561049c573d6000803e3d6000fd5b505050506040513d6000823e3d601f19601f820116820180604052508101906104c59190611166565b9050919050565b60405180610140016040528060008152602001600073ffffffffffffffffffffffffffffffffffffffff168152602001606081526020016000815260200160008152602001606081526020016060815260200160001515815260200160608152602001600081525090565b6000604051905090565b600080fd5b600080fd5b600073ffffffffffffffffffffffffffffffffffffffff82169050919050565b60006105768261054b565b9050919050565b6105868161056b565b811461059157600080fd5b50565b6000813590506105a38161057d565b92915050565b600080fd5b600080fd5b6000601f19601f8301169050919050565b7f4e487b7100000000000000000000000000000000000000000000000000000000600052604160045260246000fd5b6105fc826105b3565b810181811067ffffffffffffffff8211171561061b5761061a6105c4565b5b80604052505050565b600061062e610537565b905061063a82826105f3565b919050565b600067ffffffffffffffff82111561065a576106596105c4565b5b610663826105b3565b9050602081019050919050565b82818337600083830152505050565b600061069261068d8461063f565b610624565b9050828152602081018484840111156106ae576106ad6105ae565b5b6106b9848285610670565b509392505050565b600082601f8301126106d6576106d56105a9565b5b81356106e684826020860161067f565b91505092915050565b6000819050919050565b610702816106ef565b811461070d57600080fd5b50565b60008135905061071f816106f9565b92915050565b60008060008060008060c0878903121561074257610741610541565b5b600061075089828a01610594565b965050602087013567ffffffffffffffff81111561077157610770610546565b5b61077d89828a016106c1565b955050604061078e89828a01610710565b945050606061079f89828a01610710565b935050608087013567ffffffffffffffff8111156107c0576107bf610546565b5b6107cc89828a016106c1565b92505060a087013567ffffffffffffffff8111156107ed576107ec610546565b5b6107f989828a016106c1565b9150509295509295509295565b61080f816106ef565b82525050565b600060208201905061082a6000830184610806565b92915050565b60006020828403121561084657610845610541565b5b600061085484828501610710565b91505092915050565b610866816106ef565b82525050565b6108758161056b565b82525050565b600081519050919050565b600082825260208201905092915050565b60005b838110156108b557808201518184015260208101905061089a565b838111156108c4576000848401525b50505050565b60006108d58261087b565b6108df8185610886565b93506108ef818560208601610897565b6108f8816105b3565b840191505092915050565b60008115159050919050565b61091881610903565b82525050565b600061014083016000830151610937600086018261085d565b50602083015161094a602086018261086c565b506040830151848203604086015261096282826108ca565b9150506060830151610977606086018261085d565b50608083015161098a608086018261085d565b5060a083015184820360a08601526109a282826108ca565b91505060c083015184820360c08601526109bc82826108ca565b91505060e08301516109d160e086018261090f565b506101008301518482036101008601526109eb82826108ca565b915050610120830151610a0261012086018261085d565b508091505092915050565b60006020820190508181036000830152610a27818461091e565b905092915050565b600060208284031215610a4557610a44610541565b5b6000610a5384828501610594565b91505092915050565b600081519050919050565b600082825260208201905092915050565b6000819050602082019050919050565b600061014083016000830151610aa1600086018261085d565b506020830151610ab4602086018261086c565b5060408301518482036040860152610acc82826108ca565b9150506060830151610ae1606086018261085d565b506080830151610af4608086018261085d565b5060a083015184820360a0860152610b0c82826108ca565b91505060c083015184820360c0860152610b2682826108ca565b91505060e0830151610b3b60e086018261090f565b50610100830151848203610100860152610b5582826108ca565b915050610120830151610b6c61012086018261085d565b508091505092915050565b6000610b838383610a88565b905092915050565b6000602082019050919050565b6000610ba382610a5c565b610bad8185610a67565b935083602082028501610bbf85610a78565b8060005b85811015610bfb5784840389528151610bdc8582610b77565b9450610be783610b8b565b925060208a01995050600181019050610bc3565b50829750879550505050505092915050565b60006020820190508181036000830152610c278184610b98565b905092915050565b600081905092915050565b50565b6000610c4a600083610c2f565b9150610c5582610c3a565b600082019050919050565b6000610c6b82610c3d565b9150819050919050565b6000610c808261087b565b610c8a8185610c2f565b9350610c9a818560208601610897565b80840191505092915050565b6000610cb28284610c75565b915081905092915050565b610cc68161056b565b82525050565b600082825260208201905092915050565b6000610ce88261087b565b610cf28185610ccc565b9350610d02818560208601610897565b610d0b816105b3565b840191505092915050565b600060c082019050610d2b6000830189610cbd565b8181036020830152610d3d8188610cdd565b9050610d4c6040830187610806565b610d596060830186610806565b8181036080830152610d6b8185610cdd565b905081810360a0830152610d7f8184610cdd565b9050979650505050505050565b600081519050610d9b816106f9565b92915050565b600060208284031215610db757610db6610541565b5b6000610dc584828501610d8c565b91505092915050565b610dd781610903565b8114610de257600080fd5b50565b600081519050610df481610dce565b92915050565b600060208284031215610e1057610e0f610541565b5b6000610e1e84828501610de5565b91505092915050565b600080fd5b600080fd5b600081519050610e408161057d565b92915050565b6000610e59610e548461063f565b610624565b905082815260208101848484011115610e7557610e746105ae565b5b610e80848285610897565b509392505050565b600082601f830112610e9d57610e9c6105a9565b5b8151610ead848260208601610e46565b91505092915050565b60006101408284031215610ecd57610ecc610e27565b5b610ed8610140610624565b90506000610ee884828501610d8c565b6000830152506020610efc84828501610e31565b602083015250604082015167ffffffffffffffff811115610f2057610f1f610e2c565b5b610f2c84828501610e88565b6040830152506060610f4084828501610d8c565b6060830152506080610f5484828501610d8c565b60808301525060a082015167ffffffffffffffff811115610f7857610f77610e2c565b5b610f8484828501610e88565b60a08301525060c082015167ffffffffffffffff811115610fa857610fa7610e2c565b5b610fb484828501610e88565b60c08301525060e0610fc884828501610de5565b60e08301525061010082015167ffffffffffffffff811115610fed57610fec610e2c565b5b610ff984828501610e88565b6101008301525061012061100f84828501610d8c565b6101208301525092915050565b60006020828403121561103257611031610541565b5b600082015167ffffffffffffffff8111156110505761104f610546565b5b61105c84828501610eb6565b91505092915050565b600060208201905061107a6000830184610cbd565b92915050565b600067ffffffffffffffff82111561109b5761109a6105c4565b5b602082029050602081019050919050565b600080fd5b60006110c46110bf84611080565b610624565b905080838252602082019050602084028301858111156110e7576110e66110ac565b5b835b8181101561112e57805167ffffffffffffffff81111561110c5761110b6105a9565b5b8086016111198982610eb6565b855260208501945050506020810190506110e9565b5050509392505050565b600082601f83011261114d5761114c6105a9565b5b815161115d8482602086016110b1565b91505092915050565b60006020828403121561117c5761117b610541565b5b600082015167ffffffffffffffff81111561119a57611199610546565b5b6111a684828501611138565b9150509291505056fea2646970667358221220079f69dc101f66102212b57849337c4167a816edb764a7411e74e8bef09a44f464736f6c63430008090033",
  "linkReferences": {},
  "deployedLinkReferences": {}
}