{
  "_format": "hh-sol-artifact-1",
  "contractName": "ApplicantEndpoint",
  "sourceName": "contracts/endpoints/ApplicantEndpoint.sol",
  "abi": [
    {
      "inputs": [
        {
          "internalType": "address",
          "name": "applicantStorageAddress",
          "type": "address"
        }
      ],
      "stateMutability": "nonpayable",
      "type": "constructor"
    },
    {
      "inputs": [],
      "name": "getApplicantById",
      "outputs": [
        {
          "components": [
            {
              "internalType": "string",
              "name": "name",
              "type": "string"
            },
            {
              "internalType": "address",
              "name": "applicantAddress",
              "type": "address"
            },
            {
              "internalType": "uint256",
              "name": "registeredAt",
              "type": "uint256"
            }
          ],
          "internalType": "struct Applicant",
          "name": "",
          "type": "tuple"
        }
      ],
      "stateMutability": "view",
      "type": "function"
    },
    {
      "inputs": [],
      "name": "registerApplicant",
      "outputs": [
        {
          "internalType": "bool",
          "name": "",
          "type": "bool"
        }
      ],
      "stateMutability": "nonpayable",
      "type": "function"
    }
  ],
  "bytecode": "0x608060405234801561001057600080fd5b506040516104283803806104288339818101604052810190610032919061015d565b336000806101000a81548173ffffffffffffffffffffffffffffffffffffffff021916908373ffffffffffffffffffffffffffffffffffffffff16021790555080600160006101000a81548173ffffffffffffffffffffffffffffffffffffffff021916908373ffffffffffffffffffffffffffffffffffffffff16021790555080600260006101000a81548173ffffffffffffffffffffffffffffffffffffffff021916908373ffffffffffffffffffffffffffffffffffffffff1602179055505061018a565b600080fd5b600073ffffffffffffffffffffffffffffffffffffffff82169050919050565b600061012a826100ff565b9050919050565b61013a8161011f565b811461014557600080fd5b50565b60008151905061015781610131565b92915050565b600060208284031215610173576101726100fa565b5b600061018184828501610148565b91505092915050565b61028f806101996000396000f3fe608060405234801561001057600080fd5b50600436106100365760003560e01c806355dabe421461003b578063fdf913c314610059575b600080fd5b610043610077565b60405161005091906100d9565b60405180910390f35b61006161007c565b60405161006e9190610237565b60405180910390f35b600090565b610084610087565b90565b604051806060016040528060608152602001600073ffffffffffffffffffffffffffffffffffffffff168152602001600081525090565b60008115159050919050565b6100d3816100be565b82525050565b60006020820190506100ee60008301846100ca565b92915050565b600081519050919050565b600082825260208201905092915050565b60005b8381101561012e578082015181840152602081019050610113565b8381111561013d576000848401525b50505050565b6000601f19601f8301169050919050565b600061015f826100f4565b61016981856100ff565b9350610179818560208601610110565b61018281610143565b840191505092915050565b600073ffffffffffffffffffffffffffffffffffffffff82169050919050565b60006101b88261018d565b9050919050565b6101c8816101ad565b82525050565b6000819050919050565b6101e1816101ce565b82525050565b600060608301600083015184820360008601526102048282610154565b915050602083015161021960208601826101bf565b50604083015161022c60408601826101d8565b508091505092915050565b6000602082019050818103600083015261025181846101e7565b90509291505056fea264697066735822122063927a7cf7dc3cdaeb5983beb38341b87c20150ec72e0c616b44446d37752b6564736f6c63430008090033",
  "linkReferences": {},
  "deployedLinkReferences": {}
}