{
  "_format": "hh-sol-artifact-1",
  "contractName": "ApplicantEndpoint",
  "sourceName": "contracts/endpoints/ApplicantEndpoint.sol",
  "abi": [
    {
      "inputs": [
        {
          "internalType": "address",
          "name": "applicantStorageAddress",
          "type": "address"
        }
      ],
      "stateMutability": "nonpayable",
      "type": "constructor"
    },
    {
      "inputs": [
        {
          "internalType": "address payable",
          "name": "applicantAddress",
          "type": "address"
        }
      ],
      "name": "getApplicantByAddress",
      "outputs": [
        {
          "components": [
            {
              "internalType": "string",
              "name": "name",
              "type": "string"
            },
            {
              "internalType": "address",
              "name": "applicantAddress",
              "type": "address"
            },
            {
              "internalType": "uint256",
              "name": "createdAt",
              "type": "uint256"
            }
          ],
          "internalType": "struct Applicant",
          "name": "",
          "type": "tuple"
        }
      ],
      "stateMutability": "view",
      "type": "function"
    },
    {
      "inputs": [
        {
          "internalType": "address payable",
          "name": "applicantAddress",
          "type": "address"
        },
        {
          "internalType": "string",
          "name": "name",
          "type": "string"
        }
      ],
      "name": "registerApplicant",
      "outputs": [
        {
          "internalType": "bool",
          "name": "",
          "type": "bool"
        }
      ],
      "stateMutability": "nonpayable",
      "type": "function"
    }
  ],
  "bytecode": "0x608060405234801561001057600080fd5b50604051610a5c380380610a5c8339818101604052810190610032919061015d565b336000806101000a81548173ffffffffffffffffffffffffffffffffffffffff021916908373ffffffffffffffffffffffffffffffffffffffff16021790555080600160006101000a81548173ffffffffffffffffffffffffffffffffffffffff021916908373ffffffffffffffffffffffffffffffffffffffff16021790555080600260006101000a81548173ffffffffffffffffffffffffffffffffffffffff021916908373ffffffffffffffffffffffffffffffffffffffff1602179055505061018a565b600080fd5b600073ffffffffffffffffffffffffffffffffffffffff82169050919050565b600061012a826100ff565b9050919050565b61013a8161011f565b811461014557600080fd5b50565b60008151905061015781610131565b92915050565b600060208284031215610173576101726100fa565b5b600061018184828501610148565b91505092915050565b6108c3806101996000396000f3fe608060405234801561001057600080fd5b50600436106100365760003560e01c8063026ff3df1461003b578063e588c64d1461006b575b600080fd5b610055600480360381019061005091906102bc565b61009b565b604051610062919061040c565b60405180910390f35b61008560048036038101906100809190610563565b61015a565b60405161009291906105da565b60405180910390f35b6100a3610213565b600260009054906101000a900473ffffffffffffffffffffffffffffffffffffffff1673ffffffffffffffffffffffffffffffffffffffff1663026ff3df836040518263ffffffff1660e01b81526004016100fe9190610604565b60006040518083038186803b15801561011657600080fd5b505afa15801561012a573d6000803e3d6000fd5b505050506040513d6000823e3d601f19601f820116820180604052508101906101539190610771565b9050919050565b6000600260009054906101000a900473ffffffffffffffffffffffffffffffffffffffff1673ffffffffffffffffffffffffffffffffffffffff16634bd5551984846040518363ffffffff1660e01b81526004016101b9929190610804565b602060405180830381600087803b1580156101d357600080fd5b505af11580156101e7573d6000803e3d6000fd5b505050506040513d601f19601f8201168201806040525081019061020b9190610860565b905092915050565b604051806060016040528060608152602001600073ffffffffffffffffffffffffffffffffffffffff168152602001600081525090565b6000604051905090565b600080fd5b600080fd5b600073ffffffffffffffffffffffffffffffffffffffff82169050919050565b60006102898261025e565b9050919050565b6102998161027e565b81146102a457600080fd5b50565b6000813590506102b681610290565b92915050565b6000602082840312156102d2576102d1610254565b5b60006102e0848285016102a7565b91505092915050565b600081519050919050565b600082825260208201905092915050565b60005b83811015610323578082015181840152602081019050610308565b83811115610332576000848401525b50505050565b6000601f19601f8301169050919050565b6000610354826102e9565b61035e81856102f4565b935061036e818560208601610305565b61037781610338565b840191505092915050565b600061038d8261025e565b9050919050565b61039d81610382565b82525050565b6000819050919050565b6103b6816103a3565b82525050565b600060608301600083015184820360008601526103d98282610349565b91505060208301516103ee6020860182610394565b50604083015161040160408601826103ad565b508091505092915050565b6000602082019050818103600083015261042681846103bc565b905092915050565b600080fd5b600080fd5b7f4e487b7100000000000000000000000000000000000000000000000000000000600052604160045260246000fd5b61047082610338565b810181811067ffffffffffffffff8211171561048f5761048e610438565b5b80604052505050565b60006104a261024a565b90506104ae8282610467565b919050565b600067ffffffffffffffff8211156104ce576104cd610438565b5b6104d782610338565b9050602081019050919050565b82818337600083830152505050565b6000610506610501846104b3565b610498565b90508281526020810184848401111561052257610521610433565b5b61052d8482856104e4565b509392505050565b600082601f83011261054a5761054961042e565b5b813561055a8482602086016104f3565b91505092915050565b6000806040838503121561057a57610579610254565b5b6000610588858286016102a7565b925050602083013567ffffffffffffffff8111156105a9576105a8610259565b5b6105b585828601610535565b9150509250929050565b60008115159050919050565b6105d4816105bf565b82525050565b60006020820190506105ef60008301846105cb565b92915050565b6105fe8161027e565b82525050565b600060208201905061061960008301846105f5565b92915050565b600080fd5b600080fd5b600061063c610637846104b3565b610498565b90508281526020810184848401111561065857610657610433565b5b610663848285610305565b509392505050565b600082601f8301126106805761067f61042e565b5b8151610690848260208601610629565b91505092915050565b6106a281610382565b81146106ad57600080fd5b50565b6000815190506106bf81610699565b92915050565b6106ce816103a3565b81146106d957600080fd5b50565b6000815190506106eb816106c5565b92915050565b6000606082840312156107075761070661061f565b5b6107116060610498565b9050600082015167ffffffffffffffff81111561073157610730610624565b5b61073d8482850161066b565b6000830152506020610751848285016106b0565b6020830152506040610765848285016106dc565b60408301525092915050565b60006020828403121561078757610786610254565b5b600082015167ffffffffffffffff8111156107a5576107a4610259565b5b6107b1848285016106f1565b91505092915050565b600082825260208201905092915050565b60006107d6826102e9565b6107e081856107ba565b93506107f0818560208601610305565b6107f981610338565b840191505092915050565b600060408201905061081960008301856105f5565b818103602083015261082b81846107cb565b90509392505050565b61083d816105bf565b811461084857600080fd5b50565b60008151905061085a81610834565b92915050565b60006020828403121561087657610875610254565b5b60006108848482850161084b565b9150509291505056fea26469706673582212206881a7265c50881082850680265e10c1c1eb978a9cd11e27ad56819da0a04fce64736f6c63430008090033",
  "linkReferences": {},
  "deployedLinkReferences": {}
}