{
  "_format": "hh-sol-artifact-1",
  "contractName": "ApplicantEndpoint",
  "sourceName": "contracts/endpoints/ApplicantEndpoint.sol",
  "abi": [
    {
      "inputs": [
        {
          "internalType": "address",
          "name": "applicantStorageAddress",
          "type": "address"
        }
      ],
      "stateMutability": "nonpayable",
      "type": "constructor"
    },
    {
      "anonymous": false,
      "inputs": [
        {
          "indexed": false,
          "internalType": "address payable",
          "name": "applicantAddress",
          "type": "address"
        },
        {
          "indexed": false,
          "internalType": "string",
          "name": "name",
          "type": "string"
        },
        {
          "indexed": false,
          "internalType": "uint256",
          "name": "createdAt",
          "type": "uint256"
        }
      ],
      "name": "RegisterApplicant",
      "type": "event"
    },
    {
      "inputs": [
        {
          "internalType": "address payable",
          "name": "applicantAddress",
          "type": "address"
        }
      ],
      "name": "getApplicantByAddress",
      "outputs": [
        {
          "components": [
            {
              "internalType": "string",
              "name": "name",
              "type": "string"
            },
            {
              "internalType": "address",
              "name": "applicantAddress",
              "type": "address"
            },
            {
              "internalType": "uint256",
              "name": "createdAt",
              "type": "uint256"
            }
          ],
          "internalType": "struct Applicant",
          "name": "",
          "type": "tuple"
        }
      ],
      "stateMutability": "view",
      "type": "function"
    },
    {
      "inputs": [
        {
          "internalType": "string",
          "name": "name",
          "type": "string"
        }
      ],
      "name": "registerApplicant",
      "outputs": [],
      "stateMutability": "nonpayable",
      "type": "function"
    }
  ],
  "bytecode": "0x608060405234801561001057600080fd5b50604051610a3b380380610a3b8339818101604052810190610032919061015d565b336000806101000a81548173ffffffffffffffffffffffffffffffffffffffff021916908373ffffffffffffffffffffffffffffffffffffffff16021790555080600160006101000a81548173ffffffffffffffffffffffffffffffffffffffff021916908373ffffffffffffffffffffffffffffffffffffffff16021790555080600260006101000a81548173ffffffffffffffffffffffffffffffffffffffff021916908373ffffffffffffffffffffffffffffffffffffffff1602179055505061018a565b600080fd5b600073ffffffffffffffffffffffffffffffffffffffff82169050919050565b600061012a826100ff565b9050919050565b61013a8161011f565b811461014557600080fd5b50565b60008151905061015781610131565b92915050565b600060208284031215610173576101726100fa565b5b600061018184828501610148565b91505092915050565b6108a2806101996000396000f3fe608060405234801561001057600080fd5b50600436106100365760003560e01c8063026ff3df1461003b57806335d369651461006b575b600080fd5b610055600480360381019061005091906102f0565b610087565b6040516100629190610440565b60405180910390f35b61008560048036038101906100809190610597565b610146565b005b61008f610247565b600260009054906101000a900473ffffffffffffffffffffffffffffffffffffffff1673ffffffffffffffffffffffffffffffffffffffff1663026ff3df836040518263ffffffff1660e01b81526004016100ea91906105ef565b60006040518083038186803b15801561010257600080fd5b505afa158015610116573d6000803e3d6000fd5b505050506040513d6000823e3d601f19601f8201168201806040525081019061013f919061075c565b9050919050565b60003390506000600260009054906101000a900473ffffffffffffffffffffffffffffffffffffffff1673ffffffffffffffffffffffffffffffffffffffff16634bd5551983856040518363ffffffff1660e01b81526004016101aa9291906107ef565b600060405180830381600087803b1580156101c457600080fd5b505af11580156101d8573d6000803e3d6000fd5b505050506040513d6000823e3d601f19601f82011682018060405250810190610201919061075c565b90507f8929ca835babba72e47fd99b2ea301aecfd36661a514096deed07d2383379be98284836040015160405161023a9392919061082e565b60405180910390a1505050565b604051806060016040528060608152602001600073ffffffffffffffffffffffffffffffffffffffff168152602001600081525090565b6000604051905090565b600080fd5b600080fd5b600073ffffffffffffffffffffffffffffffffffffffff82169050919050565b60006102bd82610292565b9050919050565b6102cd816102b2565b81146102d857600080fd5b50565b6000813590506102ea816102c4565b92915050565b60006020828403121561030657610305610288565b5b6000610314848285016102db565b91505092915050565b600081519050919050565b600082825260208201905092915050565b60005b8381101561035757808201518184015260208101905061033c565b83811115610366576000848401525b50505050565b6000601f19601f8301169050919050565b60006103888261031d565b6103928185610328565b93506103a2818560208601610339565b6103ab8161036c565b840191505092915050565b60006103c182610292565b9050919050565b6103d1816103b6565b82525050565b6000819050919050565b6103ea816103d7565b82525050565b6000606083016000830151848203600086015261040d828261037d565b915050602083015161042260208601826103c8565b50604083015161043560408601826103e1565b508091505092915050565b6000602082019050818103600083015261045a81846103f0565b905092915050565b600080fd5b600080fd5b7f4e487b7100000000000000000000000000000000000000000000000000000000600052604160045260246000fd5b6104a48261036c565b810181811067ffffffffffffffff821117156104c3576104c261046c565b5b80604052505050565b60006104d661027e565b90506104e2828261049b565b919050565b600067ffffffffffffffff8211156105025761050161046c565b5b61050b8261036c565b9050602081019050919050565b82818337600083830152505050565b600061053a610535846104e7565b6104cc565b90508281526020810184848401111561055657610555610467565b5b610561848285610518565b509392505050565b600082601f83011261057e5761057d610462565b5b813561058e848260208601610527565b91505092915050565b6000602082840312156105ad576105ac610288565b5b600082013567ffffffffffffffff8111156105cb576105ca61028d565b5b6105d784828501610569565b91505092915050565b6105e9816102b2565b82525050565b600060208201905061060460008301846105e0565b92915050565b600080fd5b600080fd5b6000610627610622846104e7565b6104cc565b90508281526020810184848401111561064357610642610467565b5b61064e848285610339565b509392505050565b600082601f83011261066b5761066a610462565b5b815161067b848260208601610614565b91505092915050565b61068d816103b6565b811461069857600080fd5b50565b6000815190506106aa81610684565b92915050565b6106b9816103d7565b81146106c457600080fd5b50565b6000815190506106d6816106b0565b92915050565b6000606082840312156106f2576106f161060a565b5b6106fc60606104cc565b9050600082015167ffffffffffffffff81111561071c5761071b61060f565b5b61072884828501610656565b600083015250602061073c8482850161069b565b6020830152506040610750848285016106c7565b60408301525092915050565b60006020828403121561077257610771610288565b5b600082015167ffffffffffffffff8111156107905761078f61028d565b5b61079c848285016106dc565b91505092915050565b600082825260208201905092915050565b60006107c18261031d565b6107cb81856107a5565b93506107db818560208601610339565b6107e48161036c565b840191505092915050565b600060408201905061080460008301856105e0565b818103602083015261081681846107b6565b90509392505050565b610828816103d7565b82525050565b600060608201905061084360008301866105e0565b818103602083015261085581856107b6565b9050610864604083018461081f565b94935050505056fea2646970667358221220cec066425e496bf799d989503d5582db64c69bdcfc6380904e004968dcb33d2f64736f6c63430008090033",
  "linkReferences": {},
  "deployedLinkReferences": {}
}