{
  "_format": "hh-sol-artifact-1",
  "contractName": "CertificateEndpoint",
  "sourceName": "contracts/endpoints/CertificateEndpoint.sol",
  "abi": [
    {
      "inputs": [
        {
          "internalType": "address",
          "name": "issuerStorageAddress",
          "type": "address"
        },
        {
          "internalType": "address",
          "name": "applicantStorageAddress",
          "type": "address"
        },
        {
          "internalType": "address",
          "name": "accreditationStorageAddress",
          "type": "address"
        },
        {
          "internalType": "address",
          "name": "certificateStorageAddress",
          "type": "address"
        },
        {
          "internalType": "address",
          "name": "certificateNFTAddress",
          "type": "address"
        }
      ],
      "stateMutability": "nonpayable",
      "type": "constructor"
    },
    {
      "anonymous": false,
      "inputs": [
        {
          "indexed": false,
          "internalType": "uint256",
          "name": "id",
          "type": "uint256"
        },
        {
          "indexed": false,
          "internalType": "uint256",
          "name": "accreditationId",
          "type": "uint256"
        },
        {
          "indexed": false,
          "internalType": "address payable",
          "name": "applicantAddress",
          "type": "address"
        },
        {
          "indexed": false,
          "internalType": "address payable",
          "name": "issuerAddress",
          "type": "address"
        },
        {
          "indexed": false,
          "internalType": "uint256",
          "name": "createdAt",
          "type": "uint256"
        },
        {
          "indexed": false,
          "internalType": "string",
          "name": "level",
          "type": "string"
        },
        {
          "indexed": false,
          "internalType": "string",
          "name": "eventId",
          "type": "string"
        },
        {
          "indexed": false,
          "internalType": "string",
          "name": "remarks",
          "type": "string"
        }
      ],
      "name": "IssueCertificate",
      "type": "event"
    },
    {
      "inputs": [
        {
          "internalType": "uint256",
          "name": "id",
          "type": "uint256"
        }
      ],
      "name": "getCertificateById",
      "outputs": [
        {
          "components": [
            {
              "internalType": "uint256",
              "name": "id",
              "type": "uint256"
            },
            {
              "internalType": "address payable",
              "name": "issuer",
              "type": "address"
            },
            {
              "internalType": "address payable",
              "name": "applicant",
              "type": "address"
            },
            {
              "internalType": "uint256",
              "name": "createdAt",
              "type": "uint256"
            },
            {
              "internalType": "uint256",
              "name": "accreditationId",
              "type": "uint256"
            },
            {
              "internalType": "string",
              "name": "level",
              "type": "string"
            },
            {
              "internalType": "string",
              "name": "eventId",
              "type": "string"
            },
            {
              "internalType": "string",
              "name": "remarks",
              "type": "string"
            },
            {
              "internalType": "bool",
              "name": "isRevoked",
              "type": "bool"
            },
            {
              "internalType": "string",
              "name": "revokeReason",
              "type": "string"
            },
            {
              "internalType": "uint256",
              "name": "revokeTime",
              "type": "uint256"
            }
          ],
          "internalType": "struct Certificate",
          "name": "",
          "type": "tuple"
        }
      ],
      "stateMutability": "view",
      "type": "function"
    },
    {
      "inputs": [
        {
          "internalType": "uint256",
          "name": "id",
          "type": "uint256"
        }
      ],
      "name": "getCompleteCertById",
      "outputs": [
        {
          "components": [
            {
              "components": [
                {
                  "internalType": "string",
                  "name": "name",
                  "type": "string"
                },
                {
                  "internalType": "address payable",
                  "name": "issuerAddress",
                  "type": "address"
                },
                {
                  "internalType": "string",
                  "name": "description",
                  "type": "string"
                },
                {
                  "internalType": "string",
                  "name": "logoUrl",
                  "type": "string"
                },
                {
                  "internalType": "uint256",
                  "name": "createdAt",
                  "type": "uint256"
                }
              ],
              "internalType": "struct Issuer",
              "name": "issuer",
              "type": "tuple"
            },
            {
              "components": [
                {
                  "internalType": "string",
                  "name": "name",
                  "type": "string"
                },
                {
                  "internalType": "address",
                  "name": "applicantAddress",
                  "type": "address"
                },
                {
                  "internalType": "uint256",
                  "name": "createdAt",
                  "type": "uint256"
                }
              ],
              "internalType": "struct Applicant",
              "name": "applicant",
              "type": "tuple"
            },
            {
              "components": [
                {
                  "internalType": "uint256",
                  "name": "id",
                  "type": "uint256"
                },
                {
                  "internalType": "address payable",
                  "name": "issuer",
                  "type": "address"
                },
                {
                  "internalType": "string",
                  "name": "title",
                  "type": "string"
                },
                {
                  "internalType": "uint256",
                  "name": "createdAt",
                  "type": "uint256"
                },
                {
                  "internalType": "uint256",
                  "name": "duration",
                  "type": "uint256"
                },
                {
                  "internalType": "string",
                  "name": "nature",
                  "type": "string"
                },
                {
                  "internalType": "string",
                  "name": "description",
                  "type": "string"
                },
                {
                  "internalType": "bool",
                  "name": "isRevoked",
                  "type": "bool"
                },
                {
                  "internalType": "string",
                  "name": "revokeReason",
                  "type": "string"
                },
                {
                  "internalType": "uint256",
                  "name": "revokeTime",
                  "type": "uint256"
                }
              ],
              "internalType": "struct Accreditation",
              "name": "accreditation",
              "type": "tuple"
            },
            {
              "components": [
                {
                  "internalType": "uint256",
                  "name": "id",
                  "type": "uint256"
                },
                {
                  "internalType": "address payable",
                  "name": "issuer",
                  "type": "address"
                },
                {
                  "internalType": "address payable",
                  "name": "applicant",
                  "type": "address"
                },
                {
                  "internalType": "uint256",
                  "name": "createdAt",
                  "type": "uint256"
                },
                {
                  "internalType": "uint256",
                  "name": "accreditationId",
                  "type": "uint256"
                },
                {
                  "internalType": "string",
                  "name": "level",
                  "type": "string"
                },
                {
                  "internalType": "string",
                  "name": "eventId",
                  "type": "string"
                },
                {
                  "internalType": "string",
                  "name": "remarks",
                  "type": "string"
                },
                {
                  "internalType": "bool",
                  "name": "isRevoked",
                  "type": "bool"
                },
                {
                  "internalType": "string",
                  "name": "revokeReason",
                  "type": "string"
                },
                {
                  "internalType": "uint256",
                  "name": "revokeTime",
                  "type": "uint256"
                }
              ],
              "internalType": "struct Certificate",
              "name": "certificate",
              "type": "tuple"
            }
          ],
          "internalType": "struct CompleteCert",
          "name": "",
          "type": "tuple"
        }
      ],
      "stateMutability": "view",
      "type": "function"
    },
    {
      "inputs": [
        {
          "internalType": "address payable",
          "name": "applicantAddress",
          "type": "address"
        },
        {
          "internalType": "uint256",
          "name": "createdAt",
          "type": "uint256"
        },
        {
          "internalType": "uint256",
          "name": "accreditationId",
          "type": "uint256"
        },
        {
          "internalType": "string",
          "name": "level",
          "type": "string"
        },
        {
          "internalType": "string",
          "name": "eventId",
          "type": "string"
        },
        {
          "internalType": "string",
          "name": "remarks",
          "type": "string"
        }
      ],
      "name": "issueCertificate",
      "outputs": [],
      "stateMutability": "nonpayable",
      "type": "function"
    }
  ],
  "bytecode": "0x60806040523480156200001157600080fd5b5060405162001de938038062001de9833981810160405281019062000037919062000376565b336000806101000a81548173ffffffffffffffffffffffffffffffffffffffff021916908373ffffffffffffffffffffffffffffffffffffffff16021790555084600160006101000a81548173ffffffffffffffffffffffffffffffffffffffff021916908373ffffffffffffffffffffffffffffffffffffffff16021790555083600260006101000a81548173ffffffffffffffffffffffffffffffffffffffff021916908373ffffffffffffffffffffffffffffffffffffffff16021790555082600360006101000a81548173ffffffffffffffffffffffffffffffffffffffff021916908373ffffffffffffffffffffffffffffffffffffffff16021790555081600460006101000a81548173ffffffffffffffffffffffffffffffffffffffff021916908373ffffffffffffffffffffffffffffffffffffffff16021790555080600560006101000a81548173ffffffffffffffffffffffffffffffffffffffff021916908373ffffffffffffffffffffffffffffffffffffffff16021790555084600660006101000a81548173ffffffffffffffffffffffffffffffffffffffff021916908373ffffffffffffffffffffffffffffffffffffffff16021790555083600760006101000a81548173ffffffffffffffffffffffffffffffffffffffff021916908373ffffffffffffffffffffffffffffffffffffffff16021790555082600860006101000a81548173ffffffffffffffffffffffffffffffffffffffff021916908373ffffffffffffffffffffffffffffffffffffffff16021790555081600960006101000a81548173ffffffffffffffffffffffffffffffffffffffff021916908373ffffffffffffffffffffffffffffffffffffffff16021790555080600a60006101000a81548173ffffffffffffffffffffffffffffffffffffffff021916908373ffffffffffffffffffffffffffffffffffffffff1602179055505050505050620003fe565b600080fd5b600073ffffffffffffffffffffffffffffffffffffffff82169050919050565b60006200033e8262000311565b9050919050565b620003508162000331565b81146200035c57600080fd5b50565b600081519050620003708162000345565b92915050565b600080600080600060a086880312156200039557620003946200030c565b5b6000620003a5888289016200035f565b9550506020620003b8888289016200035f565b9450506040620003cb888289016200035f565b9350506060620003de888289016200035f565b9250506080620003f1888289016200035f565b9150509295509295909350565b6119db806200040e6000396000f3fe608060405234801561001057600080fd5b50600436106100415760003560e01c80639d735caf146100465780639e55b02714610076578063eb909fd714610092575b600080fd5b610060600480360381019061005b9190610887565b6100c2565b60405161006d9190610abc565b60405180910390f35b610090600480360381019061008b9190610c3f565b61026d565b005b6100ac60048036038101906100a79190610887565b61037e565b6040516100b99190611080565b60405180910390f35b6100ca61068e565b81600960009054906101000a900473ffffffffffffffffffffffffffffffffffffffff1673ffffffffffffffffffffffffffffffffffffffff16639f2ac116826040518263ffffffff1660e01b815260040161012691906110b1565b60206040518083038186803b15801561013e57600080fd5b505afa158015610152573d6000803e3d6000fd5b505050506040513d601f19601f8201168201806040525081019061017691906110f8565b6101b5576040517f08c379a00000000000000000000000000000000000000000000000000000000081526004016101ac906111a8565b60405180910390fd5b600960009054906101000a900473ffffffffffffffffffffffffffffffffffffffff1673ffffffffffffffffffffffffffffffffffffffff16639d735caf846040518263ffffffff1660e01b815260040161021091906110b1565b60006040518083038186803b15801561022857600080fd5b505afa15801561023c573d6000803e3d6000fd5b505050506040513d6000823e3d601f19601f8201168201806040525081019061026591906113e8565b915050919050565b60003390506000600a60009054906101000a900473ffffffffffffffffffffffffffffffffffffffff1673ffffffffffffffffffffffffffffffffffffffff166310ab14d5838a8a8a8a8a8a6040518863ffffffff1660e01b81526004016102db9796959493929190611479565b602060405180830381600087803b1580156102f557600080fd5b505af1158015610309573d6000803e3d6000fd5b505050506040513d601f19601f8201168201806040525081019061032d91906114fd565b90507f6cd04803621817b36c0c09a8c91a738cfd29c1625e9b8f54d98cbfe70325cc5b81878a858b8a8a8a60405161036c98979695949392919061152a565b60405180910390a15050505050505050565b610386610716565b6000600960009054906101000a900473ffffffffffffffffffffffffffffffffffffffff1673ffffffffffffffffffffffffffffffffffffffff16639d735caf846040518263ffffffff1660e01b81526004016103e391906110b1565b60006040518083038186803b1580156103fb57600080fd5b505afa15801561040f573d6000803e3d6000fd5b505050506040513d6000823e3d601f19601f8201168201806040525081019061043891906113e8565b90506000600860009054906101000a900473ffffffffffffffffffffffffffffffffffffffff1673ffffffffffffffffffffffffffffffffffffffff166387dbedfd83600001516040518263ffffffff1660e01b815260040161049b91906110b1565b60006040518083038186803b1580156104b357600080fd5b505afa1580156104c7573d6000803e3d6000fd5b505050506040513d6000823e3d601f19601f820116820180604052508101906104f09190611723565b90506000600760009054906101000a900473ffffffffffffffffffffffffffffffffffffffff1673ffffffffffffffffffffffffffffffffffffffff1663026ff3df84604001516040518263ffffffff1660e01b8152600401610553919061176c565b60006040518083038186803b15801561056b57600080fd5b505afa15801561057f573d6000803e3d6000fd5b505050506040513d6000823e3d601f19601f820116820180604052508101906105a89190611833565b90506000600660009054906101000a900473ffffffffffffffffffffffffffffffffffffffff1673ffffffffffffffffffffffffffffffffffffffff16635f8818d085602001516040518263ffffffff1660e01b815260040161060b919061176c565b60006040518083038186803b15801561062357600080fd5b505afa158015610637573d6000803e3d6000fd5b505050506040513d6000823e3d601f19601f82011682018060405250810190610660919061195c565b9050604051806080016040528082815260200183815260200184815260200185815250945050505050919050565b60405180610160016040528060008152602001600073ffffffffffffffffffffffffffffffffffffffff168152602001600073ffffffffffffffffffffffffffffffffffffffff168152602001600081526020016000815260200160608152602001606081526020016060815260200160001515815260200160608152602001600081525090565b6040518060800160405280610729610756565b815260200161073661079b565b81526020016107436107d2565b815260200161075061068e565b81525090565b6040518060a0016040528060608152602001600073ffffffffffffffffffffffffffffffffffffffff1681526020016060815260200160608152602001600081525090565b604051806060016040528060608152602001600073ffffffffffffffffffffffffffffffffffffffff168152602001600081525090565b60405180610140016040528060008152602001600073ffffffffffffffffffffffffffffffffffffffff168152602001606081526020016000815260200160008152602001606081526020016060815260200160001515815260200160608152602001600081525090565b6000604051905090565b600080fd5b600080fd5b6000819050919050565b61086481610851565b811461086f57600080fd5b50565b6000813590506108818161085b565b92915050565b60006020828403121561089d5761089c610847565b5b60006108ab84828501610872565b91505092915050565b6108bd81610851565b82525050565b600073ffffffffffffffffffffffffffffffffffffffff82169050919050565b60006108ee826108c3565b9050919050565b6108fe816108e3565b82525050565b600081519050919050565b600082825260208201905092915050565b60005b8381101561093e578082015181840152602081019050610923565b8381111561094d576000848401525b50505050565b6000601f19601f8301169050919050565b600061096f82610904565b610979818561090f565b9350610989818560208601610920565b61099281610953565b840191505092915050565b60008115159050919050565b6109b28161099d565b82525050565b6000610160830160008301516109d160008601826108b4565b5060208301516109e460208601826108f5565b5060408301516109f760408601826108f5565b506060830151610a0a60608601826108b4565b506080830151610a1d60808601826108b4565b5060a083015184820360a0860152610a358282610964565b91505060c083015184820360c0860152610a4f8282610964565b91505060e083015184820360e0860152610a698282610964565b915050610100830151610a806101008601826109a9565b50610120830151848203610120860152610a9a8282610964565b915050610140830151610ab16101408601826108b4565b508091505092915050565b60006020820190508181036000830152610ad681846109b8565b905092915050565b610ae7816108e3565b8114610af257600080fd5b50565b600081359050610b0481610ade565b92915050565b600080fd5b600080fd5b7f4e487b7100000000000000000000000000000000000000000000000000000000600052604160045260246000fd5b610b4c82610953565b810181811067ffffffffffffffff82111715610b6b57610b6a610b14565b5b80604052505050565b6000610b7e61083d565b9050610b8a8282610b43565b919050565b600067ffffffffffffffff821115610baa57610ba9610b14565b5b610bb382610953565b9050602081019050919050565b82818337600083830152505050565b6000610be2610bdd84610b8f565b610b74565b905082815260208101848484011115610bfe57610bfd610b0f565b5b610c09848285610bc0565b509392505050565b600082601f830112610c2657610c25610b0a565b5b8135610c36848260208601610bcf565b91505092915050565b60008060008060008060c08789031215610c5c57610c5b610847565b5b6000610c6a89828a01610af5565b9650506020610c7b89828a01610872565b9550506040610c8c89828a01610872565b945050606087013567ffffffffffffffff811115610cad57610cac61084c565b5b610cb989828a01610c11565b935050608087013567ffffffffffffffff811115610cda57610cd961084c565b5b610ce689828a01610c11565b92505060a087013567ffffffffffffffff811115610d0757610d0661084c565b5b610d1389828a01610c11565b9150509295509295509295565b600060a0830160008301518482036000860152610d3d8282610964565b9150506020830151610d5260208601826108f5565b5060408301518482036040860152610d6a8282610964565b91505060608301518482036060860152610d848282610964565b9150506080830151610d9960808601826108b4565b508091505092915050565b6000610daf826108c3565b9050919050565b610dbf81610da4565b82525050565b60006060830160008301518482036000860152610de28282610964565b9150506020830151610df76020860182610db6565b506040830151610e0a60408601826108b4565b508091505092915050565b600061014083016000830151610e2e60008601826108b4565b506020830151610e4160208601826108f5565b5060408301518482036040860152610e598282610964565b9150506060830151610e6e60608601826108b4565b506080830151610e8160808601826108b4565b5060a083015184820360a0860152610e998282610964565b91505060c083015184820360c0860152610eb38282610964565b91505060e0830151610ec860e08601826109a9565b50610100830151848203610100860152610ee28282610964565b915050610120830151610ef96101208601826108b4565b508091505092915050565b600061016083016000830151610f1d60008601826108b4565b506020830151610f3060208601826108f5565b506040830151610f4360408601826108f5565b506060830151610f5660608601826108b4565b506080830151610f6960808601826108b4565b5060a083015184820360a0860152610f818282610964565b91505060c083015184820360c0860152610f9b8282610964565b91505060e083015184820360e0860152610fb58282610964565b915050610100830151610fcc6101008601826109a9565b50610120830151848203610120860152610fe68282610964565b915050610140830151610ffd6101408601826108b4565b508091505092915050565b600060808301600083015184820360008601526110258282610d20565b9150506020830151848203602086015261103f8282610dc5565b915050604083015184820360408601526110598282610e15565b915050606083015184820360608601526110738282610f04565b9150508091505092915050565b6000602082019050818103600083015261109a8184611008565b905092915050565b6110ab81610851565b82525050565b60006020820190506110c660008301846110a2565b92915050565b6110d58161099d565b81146110e057600080fd5b50565b6000815190506110f2816110cc565b92915050565b60006020828403121561110e5761110d610847565b5b600061111c848285016110e3565b91505092915050565b600082825260208201905092915050565b7f436572746966696361746520776974682070726f766964656420494420646f6560008201527f73206e6f742065786973742e0000000000000000000000000000000000000000602082015250565b6000611192602c83611125565b915061119d82611136565b604082019050919050565b600060208201905081810360008301526111c181611185565b9050919050565b600080fd5b600080fd5b6000815190506111e18161085b565b92915050565b6000815190506111f681610ade565b92915050565b600061120f61120a84610b8f565b610b74565b90508281526020810184848401111561122b5761122a610b0f565b5b611236848285610920565b509392505050565b600082601f83011261125357611252610b0a565b5b81516112638482602086016111fc565b91505092915050565b60006101608284031215611283576112826111c8565b5b61128e610160610b74565b9050600061129e848285016111d2565b60008301525060206112b2848285016111e7565b60208301525060406112c6848285016111e7565b60408301525060606112da848285016111d2565b60608301525060806112ee848285016111d2565b60808301525060a082015167ffffffffffffffff811115611312576113116111cd565b5b61131e8482850161123e565b60a08301525060c082015167ffffffffffffffff811115611342576113416111cd565b5b61134e8482850161123e565b60c08301525060e082015167ffffffffffffffff811115611372576113716111cd565b5b61137e8482850161123e565b60e083015250610100611393848285016110e3565b6101008301525061012082015167ffffffffffffffff8111156113b9576113b86111cd565b5b6113c58482850161123e565b610120830152506101406113db848285016111d2565b6101408301525092915050565b6000602082840312156113fe576113fd610847565b5b600082015167ffffffffffffffff81111561141c5761141b61084c565b5b6114288482850161126c565b91505092915050565b61143a816108e3565b82525050565b600061144b82610904565b6114558185611125565b9350611465818560208601610920565b61146e81610953565b840191505092915050565b600060e08201905061148e600083018a611431565b61149b6020830189611431565b6114a860408301886110a2565b6114b560608301876110a2565b81810360808301526114c78186611440565b905081810360a08301526114db8185611440565b905081810360c08301526114ef8184611440565b905098975050505050505050565b60006020828403121561151357611512610847565b5b6000611521848285016111d2565b91505092915050565b600061010082019050611540600083018b6110a2565b61154d602083018a6110a2565b61155a6040830189611431565b6115676060830188611431565b61157460808301876110a2565b81810360a08301526115868186611440565b905081810360c083015261159a8185611440565b905081810360e08301526115ae8184611440565b90509998505050505050505050565b600061014082840312156115d4576115d36111c8565b5b6115df610140610b74565b905060006115ef848285016111d2565b6000830152506020611603848285016111e7565b602083015250604082015167ffffffffffffffff811115611627576116266111cd565b5b6116338482850161123e565b6040830152506060611647848285016111d2565b606083015250608061165b848285016111d2565b60808301525060a082015167ffffffffffffffff81111561167f5761167e6111cd565b5b61168b8482850161123e565b60a08301525060c082015167ffffffffffffffff8111156116af576116ae6111cd565b5b6116bb8482850161123e565b60c08301525060e06116cf848285016110e3565b60e08301525061010082015167ffffffffffffffff8111156116f4576116f36111cd565b5b6117008482850161123e565b61010083015250610120611716848285016111d2565b6101208301525092915050565b60006020828403121561173957611738610847565b5b600082015167ffffffffffffffff8111156117575761175661084c565b5b611763848285016115bd565b91505092915050565b60006020820190506117816000830184611431565b92915050565b61179081610da4565b811461179b57600080fd5b50565b6000815190506117ad81611787565b92915050565b6000606082840312156117c9576117c86111c8565b5b6117d36060610b74565b9050600082015167ffffffffffffffff8111156117f3576117f26111cd565b5b6117ff8482850161123e565b60008301525060206118138482850161179e565b6020830152506040611827848285016111d2565b60408301525092915050565b60006020828403121561184957611848610847565b5b600082015167ffffffffffffffff8111156118675761186661084c565b5b611873848285016117b3565b91505092915050565b600060a08284031215611892576118916111c8565b5b61189c60a0610b74565b9050600082015167ffffffffffffffff8111156118bc576118bb6111cd565b5b6118c88482850161123e565b60008301525060206118dc848285016111e7565b602083015250604082015167ffffffffffffffff811115611900576118ff6111cd565b5b61190c8482850161123e565b604083015250606082015167ffffffffffffffff8111156119305761192f6111cd565b5b61193c8482850161123e565b6060830152506080611950848285016111d2565b60808301525092915050565b60006020828403121561197257611971610847565b5b600082015167ffffffffffffffff8111156119905761198f61084c565b5b61199c8482850161187c565b9150509291505056fea2646970667358221220cfda91133f70bbe1e464f15b603779ea56c2c6e786e36314a31617da48cb9be564736f6c63430008090033",
  "linkReferences": {},
  "deployedLinkReferences": {}
}