{
  "_format": "hh-sol-artifact-1",
  "contractName": "CertificateEndpoint",
  "sourceName": "contracts/endpoints/CertificateEndpoint.sol",
  "abi": [
    {
      "inputs": [
        {
          "internalType": "address",
          "name": "issuerStorageAddress",
          "type": "address"
        },
        {
          "internalType": "address",
          "name": "applicantStorageAddress",
          "type": "address"
        },
        {
          "internalType": "address",
          "name": "accreditationStorageAddress",
          "type": "address"
        },
        {
          "internalType": "address",
          "name": "certificateStorageAddress",
          "type": "address"
        },
        {
          "internalType": "address",
          "name": "certificateNFTAddress",
          "type": "address"
        }
      ],
      "stateMutability": "nonpayable",
      "type": "constructor"
    },
    {
      "anonymous": false,
      "inputs": [
        {
          "indexed": false,
          "internalType": "uint256",
          "name": "id",
          "type": "uint256"
        },
        {
          "indexed": false,
          "internalType": "uint256",
          "name": "accreditationId",
          "type": "uint256"
        },
        {
          "indexed": false,
          "internalType": "address payable",
          "name": "applicantAddress",
          "type": "address"
        },
        {
          "indexed": false,
          "internalType": "address payable",
          "name": "issuerAddress",
          "type": "address"
        },
        {
          "indexed": false,
          "internalType": "uint256",
          "name": "createdAt",
          "type": "uint256"
        },
        {
          "indexed": false,
          "internalType": "string",
          "name": "level",
          "type": "string"
        },
        {
          "indexed": false,
          "internalType": "string",
          "name": "eventId",
          "type": "string"
        },
        {
          "indexed": false,
          "internalType": "string",
          "name": "remarks",
          "type": "string"
        }
      ],
      "name": "IssueCertificate",
      "type": "event"
    },
    {
      "inputs": [
        {
          "internalType": "uint256",
          "name": "id",
          "type": "uint256"
        }
      ],
      "name": "getCertificateById",
      "outputs": [
        {
          "components": [
            {
              "internalType": "uint256",
              "name": "id",
              "type": "uint256"
            },
            {
              "internalType": "address payable",
              "name": "issuer",
              "type": "address"
            },
            {
              "internalType": "address payable",
              "name": "applicant",
              "type": "address"
            },
            {
              "internalType": "uint256",
              "name": "createdAt",
              "type": "uint256"
            },
            {
              "internalType": "uint256",
              "name": "accreditationId",
              "type": "uint256"
            },
            {
              "internalType": "string",
              "name": "level",
              "type": "string"
            },
            {
              "internalType": "string",
              "name": "eventId",
              "type": "string"
            },
            {
              "internalType": "string",
              "name": "remarks",
              "type": "string"
            },
            {
              "internalType": "bool",
              "name": "isRevoked",
              "type": "bool"
            },
            {
              "internalType": "string",
              "name": "revokeReason",
              "type": "string"
            },
            {
              "internalType": "uint256",
              "name": "revokeTime",
              "type": "uint256"
            }
          ],
          "internalType": "struct Certificate",
          "name": "",
          "type": "tuple"
        }
      ],
      "stateMutability": "view",
      "type": "function"
    },
    {
      "inputs": [
        {
          "internalType": "uint256",
          "name": "id",
          "type": "uint256"
        }
      ],
      "name": "getCompleteCertById",
      "outputs": [
        {
          "components": [
            {
              "components": [
                {
                  "internalType": "string",
                  "name": "name",
                  "type": "string"
                },
                {
                  "internalType": "address payable",
                  "name": "issuerAddress",
                  "type": "address"
                },
                {
                  "internalType": "string",
                  "name": "description",
                  "type": "string"
                },
                {
                  "internalType": "string",
                  "name": "logoUrl",
                  "type": "string"
                },
                {
                  "internalType": "uint256",
                  "name": "createdAt",
                  "type": "uint256"
                }
              ],
              "internalType": "struct Issuer",
              "name": "issuer",
              "type": "tuple"
            },
            {
              "components": [
                {
                  "internalType": "string",
                  "name": "name",
                  "type": "string"
                },
                {
                  "internalType": "address",
                  "name": "applicantAddress",
                  "type": "address"
                },
                {
                  "internalType": "uint256",
                  "name": "createdAt",
                  "type": "uint256"
                }
              ],
              "internalType": "struct Applicant",
              "name": "applicant",
              "type": "tuple"
            },
            {
              "components": [
                {
                  "internalType": "uint256",
                  "name": "id",
                  "type": "uint256"
                },
                {
                  "internalType": "address payable",
                  "name": "issuer",
                  "type": "address"
                },
                {
                  "internalType": "string",
                  "name": "title",
                  "type": "string"
                },
                {
                  "internalType": "uint256",
                  "name": "createdAt",
                  "type": "uint256"
                },
                {
                  "internalType": "uint256",
                  "name": "duration",
                  "type": "uint256"
                },
                {
                  "internalType": "string",
                  "name": "nature",
                  "type": "string"
                },
                {
                  "internalType": "string",
                  "name": "description",
                  "type": "string"
                },
                {
                  "internalType": "bool",
                  "name": "isRevoked",
                  "type": "bool"
                },
                {
                  "internalType": "string",
                  "name": "revokeReason",
                  "type": "string"
                },
                {
                  "internalType": "uint256",
                  "name": "revokeTime",
                  "type": "uint256"
                }
              ],
              "internalType": "struct Accreditation",
              "name": "accreditation",
              "type": "tuple"
            },
            {
              "components": [
                {
                  "internalType": "uint256",
                  "name": "id",
                  "type": "uint256"
                },
                {
                  "internalType": "address payable",
                  "name": "issuer",
                  "type": "address"
                },
                {
                  "internalType": "address payable",
                  "name": "applicant",
                  "type": "address"
                },
                {
                  "internalType": "uint256",
                  "name": "createdAt",
                  "type": "uint256"
                },
                {
                  "internalType": "uint256",
                  "name": "accreditationId",
                  "type": "uint256"
                },
                {
                  "internalType": "string",
                  "name": "level",
                  "type": "string"
                },
                {
                  "internalType": "string",
                  "name": "eventId",
                  "type": "string"
                },
                {
                  "internalType": "string",
                  "name": "remarks",
                  "type": "string"
                },
                {
                  "internalType": "bool",
                  "name": "isRevoked",
                  "type": "bool"
                },
                {
                  "internalType": "string",
                  "name": "revokeReason",
                  "type": "string"
                },
                {
                  "internalType": "uint256",
                  "name": "revokeTime",
                  "type": "uint256"
                }
              ],
              "internalType": "struct Certificate",
              "name": "certificate",
              "type": "tuple"
            }
          ],
          "internalType": "struct CompleteCert",
          "name": "",
          "type": "tuple"
        }
      ],
      "stateMutability": "view",
      "type": "function"
    },
    {
      "inputs": [
        {
          "internalType": "address payable",
          "name": "applicantAddress",
          "type": "address"
        },
        {
          "internalType": "uint256",
          "name": "createdAt",
          "type": "uint256"
        },
        {
          "internalType": "uint256",
          "name": "accreditationId",
          "type": "uint256"
        },
        {
          "internalType": "string",
          "name": "level",
          "type": "string"
        },
        {
          "internalType": "string",
          "name": "eventId",
          "type": "string"
        },
        {
          "internalType": "string",
          "name": "remarks",
          "type": "string"
        }
      ],
      "name": "issueCertificate",
      "outputs": [],
      "stateMutability": "nonpayable",
      "type": "function"
    }
  ],
  "bytecode": "0x60806040523480156200001157600080fd5b5060405162001c3e38038062001c3e833981810160405281019062000037919062000376565b336000806101000a81548173ffffffffffffffffffffffffffffffffffffffff021916908373ffffffffffffffffffffffffffffffffffffffff16021790555084600160006101000a81548173ffffffffffffffffffffffffffffffffffffffff021916908373ffffffffffffffffffffffffffffffffffffffff16021790555083600260006101000a81548173ffffffffffffffffffffffffffffffffffffffff021916908373ffffffffffffffffffffffffffffffffffffffff16021790555082600360006101000a81548173ffffffffffffffffffffffffffffffffffffffff021916908373ffffffffffffffffffffffffffffffffffffffff16021790555081600460006101000a81548173ffffffffffffffffffffffffffffffffffffffff021916908373ffffffffffffffffffffffffffffffffffffffff16021790555080600560006101000a81548173ffffffffffffffffffffffffffffffffffffffff021916908373ffffffffffffffffffffffffffffffffffffffff16021790555084600660006101000a81548173ffffffffffffffffffffffffffffffffffffffff021916908373ffffffffffffffffffffffffffffffffffffffff16021790555083600760006101000a81548173ffffffffffffffffffffffffffffffffffffffff021916908373ffffffffffffffffffffffffffffffffffffffff16021790555082600860006101000a81548173ffffffffffffffffffffffffffffffffffffffff021916908373ffffffffffffffffffffffffffffffffffffffff16021790555081600960006101000a81548173ffffffffffffffffffffffffffffffffffffffff021916908373ffffffffffffffffffffffffffffffffffffffff16021790555080600a60006101000a81548173ffffffffffffffffffffffffffffffffffffffff021916908373ffffffffffffffffffffffffffffffffffffffff1602179055505050505050620003fe565b600080fd5b600073ffffffffffffffffffffffffffffffffffffffff82169050919050565b60006200033e8262000311565b9050919050565b620003508162000331565b81146200035c57600080fd5b50565b600081519050620003708162000345565b92915050565b600080600080600060a086880312156200039557620003946200030c565b5b6000620003a5888289016200035f565b9550506020620003b8888289016200035f565b9450506040620003cb888289016200035f565b9350506060620003de888289016200035f565b9250506080620003f1888289016200035f565b9150509295509295909350565b611830806200040e6000396000f3fe608060405234801561001057600080fd5b50600436106100415760003560e01c80639d735caf146100465780639e55b02714610076578063eb909fd714610092575b600080fd5b610060600480360381019061005b919061079b565b6100c2565b60405161006d91906109d0565b60405180910390f35b610090600480360381019061008b9190610b53565b610181565b005b6100ac60048036038101906100a7919061079b565b610292565b6040516100b99190610f94565b60405180910390f35b6100ca6105a2565b600960009054906101000a900473ffffffffffffffffffffffffffffffffffffffff1673ffffffffffffffffffffffffffffffffffffffff16639d735caf836040518263ffffffff1660e01b81526004016101259190610fc5565b60006040518083038186803b15801561013d57600080fd5b505afa158015610151573d6000803e3d6000fd5b505050506040513d6000823e3d601f19601f8201168201806040525081019061017a919061122c565b9050919050565b60003390506000600a60009054906101000a900473ffffffffffffffffffffffffffffffffffffffff1673ffffffffffffffffffffffffffffffffffffffff166310ab14d5838a8a8a8a8a8a6040518863ffffffff1660e01b81526004016101ef97969594939291906112ce565b602060405180830381600087803b15801561020957600080fd5b505af115801561021d573d6000803e3d6000fd5b505050506040513d601f19601f820116820180604052508101906102419190611352565b90507f6cd04803621817b36c0c09a8c91a738cfd29c1625e9b8f54d98cbfe70325cc5b81878a858b8a8a8a60405161028098979695949392919061137f565b60405180910390a15050505050505050565b61029a61062a565b6000600960009054906101000a900473ffffffffffffffffffffffffffffffffffffffff1673ffffffffffffffffffffffffffffffffffffffff16639d735caf846040518263ffffffff1660e01b81526004016102f79190610fc5565b60006040518083038186803b15801561030f57600080fd5b505afa158015610323573d6000803e3d6000fd5b505050506040513d6000823e3d601f19601f8201168201806040525081019061034c919061122c565b90506000600860009054906101000a900473ffffffffffffffffffffffffffffffffffffffff1673ffffffffffffffffffffffffffffffffffffffff166387dbedfd83600001516040518263ffffffff1660e01b81526004016103af9190610fc5565b60006040518083038186803b1580156103c757600080fd5b505afa1580156103db573d6000803e3d6000fd5b505050506040513d6000823e3d601f19601f820116820180604052508101906104049190611578565b90506000600760009054906101000a900473ffffffffffffffffffffffffffffffffffffffff1673ffffffffffffffffffffffffffffffffffffffff1663026ff3df84604001516040518263ffffffff1660e01b815260040161046791906115c1565b60006040518083038186803b15801561047f57600080fd5b505afa158015610493573d6000803e3d6000fd5b505050506040513d6000823e3d601f19601f820116820180604052508101906104bc9190611688565b90506000600660009054906101000a900473ffffffffffffffffffffffffffffffffffffffff1673ffffffffffffffffffffffffffffffffffffffff16635f8818d085602001516040518263ffffffff1660e01b815260040161051f91906115c1565b60006040518083038186803b15801561053757600080fd5b505afa15801561054b573d6000803e3d6000fd5b505050506040513d6000823e3d601f19601f8201168201806040525081019061057491906117b1565b9050604051806080016040528082815260200183815260200184815260200185815250945050505050919050565b60405180610160016040528060008152602001600073ffffffffffffffffffffffffffffffffffffffff168152602001600073ffffffffffffffffffffffffffffffffffffffff168152602001600081526020016000815260200160608152602001606081526020016060815260200160001515815260200160608152602001600081525090565b604051806080016040528061063d61066a565b815260200161064a6106af565b81526020016106576106e6565b81526020016106646105a2565b81525090565b6040518060a0016040528060608152602001600073ffffffffffffffffffffffffffffffffffffffff1681526020016060815260200160608152602001600081525090565b604051806060016040528060608152602001600073ffffffffffffffffffffffffffffffffffffffff168152602001600081525090565b60405180610140016040528060008152602001600073ffffffffffffffffffffffffffffffffffffffff168152602001606081526020016000815260200160008152602001606081526020016060815260200160001515815260200160608152602001600081525090565b6000604051905090565b600080fd5b600080fd5b6000819050919050565b61077881610765565b811461078357600080fd5b50565b6000813590506107958161076f565b92915050565b6000602082840312156107b1576107b061075b565b5b60006107bf84828501610786565b91505092915050565b6107d181610765565b82525050565b600073ffffffffffffffffffffffffffffffffffffffff82169050919050565b6000610802826107d7565b9050919050565b610812816107f7565b82525050565b600081519050919050565b600082825260208201905092915050565b60005b83811015610852578082015181840152602081019050610837565b83811115610861576000848401525b50505050565b6000601f19601f8301169050919050565b600061088382610818565b61088d8185610823565b935061089d818560208601610834565b6108a681610867565b840191505092915050565b60008115159050919050565b6108c6816108b1565b82525050565b6000610160830160008301516108e560008601826107c8565b5060208301516108f86020860182610809565b50604083015161090b6040860182610809565b50606083015161091e60608601826107c8565b50608083015161093160808601826107c8565b5060a083015184820360a08601526109498282610878565b91505060c083015184820360c08601526109638282610878565b91505060e083015184820360e086015261097d8282610878565b9150506101008301516109946101008601826108bd565b506101208301518482036101208601526109ae8282610878565b9150506101408301516109c56101408601826107c8565b508091505092915050565b600060208201905081810360008301526109ea81846108cc565b905092915050565b6109fb816107f7565b8114610a0657600080fd5b50565b600081359050610a18816109f2565b92915050565b600080fd5b600080fd5b7f4e487b7100000000000000000000000000000000000000000000000000000000600052604160045260246000fd5b610a6082610867565b810181811067ffffffffffffffff82111715610a7f57610a7e610a28565b5b80604052505050565b6000610a92610751565b9050610a9e8282610a57565b919050565b600067ffffffffffffffff821115610abe57610abd610a28565b5b610ac782610867565b9050602081019050919050565b82818337600083830152505050565b6000610af6610af184610aa3565b610a88565b905082815260208101848484011115610b1257610b11610a23565b5b610b1d848285610ad4565b509392505050565b600082601f830112610b3a57610b39610a1e565b5b8135610b4a848260208601610ae3565b91505092915050565b60008060008060008060c08789031215610b7057610b6f61075b565b5b6000610b7e89828a01610a09565b9650506020610b8f89828a01610786565b9550506040610ba089828a01610786565b945050606087013567ffffffffffffffff811115610bc157610bc0610760565b5b610bcd89828a01610b25565b935050608087013567ffffffffffffffff811115610bee57610bed610760565b5b610bfa89828a01610b25565b92505060a087013567ffffffffffffffff811115610c1b57610c1a610760565b5b610c2789828a01610b25565b9150509295509295509295565b600060a0830160008301518482036000860152610c518282610878565b9150506020830151610c666020860182610809565b5060408301518482036040860152610c7e8282610878565b91505060608301518482036060860152610c988282610878565b9150506080830151610cad60808601826107c8565b508091505092915050565b6000610cc3826107d7565b9050919050565b610cd381610cb8565b82525050565b60006060830160008301518482036000860152610cf68282610878565b9150506020830151610d0b6020860182610cca565b506040830151610d1e60408601826107c8565b508091505092915050565b600061014083016000830151610d4260008601826107c8565b506020830151610d556020860182610809565b5060408301518482036040860152610d6d8282610878565b9150506060830151610d8260608601826107c8565b506080830151610d9560808601826107c8565b5060a083015184820360a0860152610dad8282610878565b91505060c083015184820360c0860152610dc78282610878565b91505060e0830151610ddc60e08601826108bd565b50610100830151848203610100860152610df68282610878565b915050610120830151610e0d6101208601826107c8565b508091505092915050565b600061016083016000830151610e3160008601826107c8565b506020830151610e446020860182610809565b506040830151610e576040860182610809565b506060830151610e6a60608601826107c8565b506080830151610e7d60808601826107c8565b5060a083015184820360a0860152610e958282610878565b91505060c083015184820360c0860152610eaf8282610878565b91505060e083015184820360e0860152610ec98282610878565b915050610100830151610ee06101008601826108bd565b50610120830151848203610120860152610efa8282610878565b915050610140830151610f116101408601826107c8565b508091505092915050565b60006080830160008301518482036000860152610f398282610c34565b91505060208301518482036020860152610f538282610cd9565b91505060408301518482036040860152610f6d8282610d29565b91505060608301518482036060860152610f878282610e18565b9150508091505092915050565b60006020820190508181036000830152610fae8184610f1c565b905092915050565b610fbf81610765565b82525050565b6000602082019050610fda6000830184610fb6565b92915050565b600080fd5b600080fd5b600081519050610ff98161076f565b92915050565b60008151905061100e816109f2565b92915050565b600061102761102284610aa3565b610a88565b90508281526020810184848401111561104357611042610a23565b5b61104e848285610834565b509392505050565b600082601f83011261106b5761106a610a1e565b5b815161107b848260208601611014565b91505092915050565b61108d816108b1565b811461109857600080fd5b50565b6000815190506110aa81611084565b92915050565b600061016082840312156110c7576110c6610fe0565b5b6110d2610160610a88565b905060006110e284828501610fea565b60008301525060206110f684828501610fff565b602083015250604061110a84828501610fff565b604083015250606061111e84828501610fea565b606083015250608061113284828501610fea565b60808301525060a082015167ffffffffffffffff81111561115657611155610fe5565b5b61116284828501611056565b60a08301525060c082015167ffffffffffffffff81111561118657611185610fe5565b5b61119284828501611056565b60c08301525060e082015167ffffffffffffffff8111156111b6576111b5610fe5565b5b6111c284828501611056565b60e0830152506101006111d78482850161109b565b6101008301525061012082015167ffffffffffffffff8111156111fd576111fc610fe5565b5b61120984828501611056565b6101208301525061014061121f84828501610fea565b6101408301525092915050565b6000602082840312156112425761124161075b565b5b600082015167ffffffffffffffff8111156112605761125f610760565b5b61126c848285016110b0565b91505092915050565b61127e816107f7565b82525050565b600082825260208201905092915050565b60006112a082610818565b6112aa8185611284565b93506112ba818560208601610834565b6112c381610867565b840191505092915050565b600060e0820190506112e3600083018a611275565b6112f06020830189611275565b6112fd6040830188610fb6565b61130a6060830187610fb6565b818103608083015261131c8186611295565b905081810360a08301526113308185611295565b905081810360c08301526113448184611295565b905098975050505050505050565b6000602082840312156113685761136761075b565b5b600061137684828501610fea565b91505092915050565b600061010082019050611395600083018b610fb6565b6113a2602083018a610fb6565b6113af6040830189611275565b6113bc6060830188611275565b6113c96080830187610fb6565b81810360a08301526113db8186611295565b905081810360c08301526113ef8185611295565b905081810360e08301526114038184611295565b90509998505050505050505050565b6000610140828403121561142957611428610fe0565b5b611434610140610a88565b9050600061144484828501610fea565b600083015250602061145884828501610fff565b602083015250604082015167ffffffffffffffff81111561147c5761147b610fe5565b5b61148884828501611056565b604083015250606061149c84828501610fea565b60608301525060806114b084828501610fea565b60808301525060a082015167ffffffffffffffff8111156114d4576114d3610fe5565b5b6114e084828501611056565b60a08301525060c082015167ffffffffffffffff81111561150457611503610fe5565b5b61151084828501611056565b60c08301525060e06115248482850161109b565b60e08301525061010082015167ffffffffffffffff81111561154957611548610fe5565b5b61155584828501611056565b6101008301525061012061156b84828501610fea565b6101208301525092915050565b60006020828403121561158e5761158d61075b565b5b600082015167ffffffffffffffff8111156115ac576115ab610760565b5b6115b884828501611412565b91505092915050565b60006020820190506115d66000830184611275565b92915050565b6115e581610cb8565b81146115f057600080fd5b50565b600081519050611602816115dc565b92915050565b60006060828403121561161e5761161d610fe0565b5b6116286060610a88565b9050600082015167ffffffffffffffff81111561164857611647610fe5565b5b61165484828501611056565b6000830152506020611668848285016115f3565b602083015250604061167c84828501610fea565b60408301525092915050565b60006020828403121561169e5761169d61075b565b5b600082015167ffffffffffffffff8111156116bc576116bb610760565b5b6116c884828501611608565b91505092915050565b600060a082840312156116e7576116e6610fe0565b5b6116f160a0610a88565b9050600082015167ffffffffffffffff81111561171157611710610fe5565b5b61171d84828501611056565b600083015250602061173184828501610fff565b602083015250604082015167ffffffffffffffff81111561175557611754610fe5565b5b61176184828501611056565b604083015250606082015167ffffffffffffffff81111561178557611784610fe5565b5b61179184828501611056565b60608301525060806117a584828501610fea565b60808301525092915050565b6000602082840312156117c7576117c661075b565b5b600082015167ffffffffffffffff8111156117e5576117e4610760565b5b6117f1848285016116d1565b9150509291505056fea2646970667358221220e5e23a70e51c5a0d4a89c72385fe4c96e2fce9b51b0b8357a7687b4c678f741c64736f6c63430008090033",
  "linkReferences": {},
  "deployedLinkReferences": {}
}