{
  "_format": "hh-sol-artifact-1",
  "contractName": "CertificateEndpoint",
  "sourceName": "contracts/endpoints/CertificateEndpoint.sol",
  "abi": [
    {
      "inputs": [
        {
          "internalType": "address",
          "name": "issuerStorageAddress",
          "type": "address"
        },
        {
          "internalType": "address",
          "name": "applicantStorageAddress",
          "type": "address"
        },
        {
          "internalType": "address",
          "name": "accreditationStorageAddress",
          "type": "address"
        },
        {
          "internalType": "address",
          "name": "certificateStorageAddress",
          "type": "address"
        },
        {
          "internalType": "address",
          "name": "certificateNFTAddress",
          "type": "address"
        }
      ],
      "stateMutability": "nonpayable",
      "type": "constructor"
    },
    {
      "inputs": [
        {
          "internalType": "uint256",
          "name": "id",
          "type": "uint256"
        }
      ],
      "name": "getCertificateById",
      "outputs": [
        {
          "components": [
            {
              "internalType": "uint256",
              "name": "id",
              "type": "uint256"
            },
            {
              "internalType": "address payable",
              "name": "issuer",
              "type": "address"
            },
            {
              "internalType": "address payable",
              "name": "applicant",
              "type": "address"
            },
            {
              "internalType": "uint256",
              "name": "createdAt",
              "type": "uint256"
            },
            {
              "internalType": "uint256",
              "name": "accreditationId",
              "type": "uint256"
            },
            {
              "internalType": "string",
              "name": "level",
              "type": "string"
            },
            {
              "internalType": "string",
              "name": "eventId",
              "type": "string"
            },
            {
              "internalType": "string",
              "name": "remarks",
              "type": "string"
            },
            {
              "internalType": "bool",
              "name": "isRevoked",
              "type": "bool"
            },
            {
              "internalType": "string",
              "name": "revokeReason",
              "type": "string"
            },
            {
              "internalType": "uint256",
              "name": "revokeTime",
              "type": "uint256"
            }
          ],
          "internalType": "struct Certificate",
          "name": "",
          "type": "tuple"
        }
      ],
      "stateMutability": "view",
      "type": "function"
    },
    {
      "inputs": [
        {
          "internalType": "uint256",
          "name": "id",
          "type": "uint256"
        }
      ],
      "name": "getCompleteCertById",
      "outputs": [
        {
          "components": [
            {
              "components": [
                {
                  "internalType": "string",
                  "name": "name",
                  "type": "string"
                },
                {
                  "internalType": "address payable",
                  "name": "issuerAddress",
                  "type": "address"
                },
                {
                  "internalType": "string",
                  "name": "description",
                  "type": "string"
                },
                {
                  "internalType": "string",
                  "name": "logoUrl",
                  "type": "string"
                },
                {
                  "internalType": "uint256",
                  "name": "createdAt",
                  "type": "uint256"
                }
              ],
              "internalType": "struct Issuer",
              "name": "issuer",
              "type": "tuple"
            },
            {
              "components": [
                {
                  "internalType": "string",
                  "name": "name",
                  "type": "string"
                },
                {
                  "internalType": "address",
                  "name": "applicantAddress",
                  "type": "address"
                },
                {
                  "internalType": "uint256",
                  "name": "createdAt",
                  "type": "uint256"
                }
              ],
              "internalType": "struct Applicant",
              "name": "applicant",
              "type": "tuple"
            },
            {
              "components": [
                {
                  "internalType": "uint256",
                  "name": "id",
                  "type": "uint256"
                },
                {
                  "internalType": "address payable",
                  "name": "issuer",
                  "type": "address"
                },
                {
                  "internalType": "string",
                  "name": "title",
                  "type": "string"
                },
                {
                  "internalType": "uint256",
                  "name": "createdAt",
                  "type": "uint256"
                },
                {
                  "internalType": "uint256",
                  "name": "duration",
                  "type": "uint256"
                },
                {
                  "internalType": "string",
                  "name": "nature",
                  "type": "string"
                },
                {
                  "internalType": "string",
                  "name": "description",
                  "type": "string"
                },
                {
                  "internalType": "bool",
                  "name": "isRevoked",
                  "type": "bool"
                },
                {
                  "internalType": "string",
                  "name": "revokeReason",
                  "type": "string"
                },
                {
                  "internalType": "uint256",
                  "name": "revokeTime",
                  "type": "uint256"
                }
              ],
              "internalType": "struct Accreditation",
              "name": "accreditation",
              "type": "tuple"
            },
            {
              "components": [
                {
                  "internalType": "uint256",
                  "name": "id",
                  "type": "uint256"
                },
                {
                  "internalType": "address payable",
                  "name": "issuer",
                  "type": "address"
                },
                {
                  "internalType": "address payable",
                  "name": "applicant",
                  "type": "address"
                },
                {
                  "internalType": "uint256",
                  "name": "createdAt",
                  "type": "uint256"
                },
                {
                  "internalType": "uint256",
                  "name": "accreditationId",
                  "type": "uint256"
                },
                {
                  "internalType": "string",
                  "name": "level",
                  "type": "string"
                },
                {
                  "internalType": "string",
                  "name": "eventId",
                  "type": "string"
                },
                {
                  "internalType": "string",
                  "name": "remarks",
                  "type": "string"
                },
                {
                  "internalType": "bool",
                  "name": "isRevoked",
                  "type": "bool"
                },
                {
                  "internalType": "string",
                  "name": "revokeReason",
                  "type": "string"
                },
                {
                  "internalType": "uint256",
                  "name": "revokeTime",
                  "type": "uint256"
                }
              ],
              "internalType": "struct Certificate",
              "name": "certificate",
              "type": "tuple"
            }
          ],
          "internalType": "struct CompleteCert",
          "name": "",
          "type": "tuple"
        }
      ],
      "stateMutability": "view",
      "type": "function"
    },
    {
      "inputs": [
        {
          "internalType": "address payable",
          "name": "issuerAddress",
          "type": "address"
        },
        {
          "internalType": "address payable",
          "name": "applicantAddress",
          "type": "address"
        },
        {
          "internalType": "uint256",
          "name": "createdAt",
          "type": "uint256"
        },
        {
          "internalType": "uint256",
          "name": "accreditationId",
          "type": "uint256"
        },
        {
          "internalType": "string",
          "name": "level",
          "type": "string"
        },
        {
          "internalType": "string",
          "name": "eventId",
          "type": "string"
        },
        {
          "internalType": "string",
          "name": "remarks",
          "type": "string"
        }
      ],
      "name": "issueCertificate",
      "outputs": [
        {
          "internalType": "uint256",
          "name": "",
          "type": "uint256"
        }
      ],
      "stateMutability": "nonpayable",
      "type": "function"
    }
  ],
  "bytecode": "0x60806040523480156200001157600080fd5b5060405162001b8b38038062001b8b833981810160405281019062000037919062000376565b336000806101000a81548173ffffffffffffffffffffffffffffffffffffffff021916908373ffffffffffffffffffffffffffffffffffffffff16021790555084600160006101000a81548173ffffffffffffffffffffffffffffffffffffffff021916908373ffffffffffffffffffffffffffffffffffffffff16021790555083600260006101000a81548173ffffffffffffffffffffffffffffffffffffffff021916908373ffffffffffffffffffffffffffffffffffffffff16021790555082600360006101000a81548173ffffffffffffffffffffffffffffffffffffffff021916908373ffffffffffffffffffffffffffffffffffffffff16021790555081600460006101000a81548173ffffffffffffffffffffffffffffffffffffffff021916908373ffffffffffffffffffffffffffffffffffffffff16021790555080600560006101000a81548173ffffffffffffffffffffffffffffffffffffffff021916908373ffffffffffffffffffffffffffffffffffffffff16021790555084600660006101000a81548173ffffffffffffffffffffffffffffffffffffffff021916908373ffffffffffffffffffffffffffffffffffffffff16021790555083600760006101000a81548173ffffffffffffffffffffffffffffffffffffffff021916908373ffffffffffffffffffffffffffffffffffffffff16021790555082600860006101000a81548173ffffffffffffffffffffffffffffffffffffffff021916908373ffffffffffffffffffffffffffffffffffffffff16021790555081600960006101000a81548173ffffffffffffffffffffffffffffffffffffffff021916908373ffffffffffffffffffffffffffffffffffffffff16021790555080600a60006101000a81548173ffffffffffffffffffffffffffffffffffffffff021916908373ffffffffffffffffffffffffffffffffffffffff1602179055505050505050620003fe565b600080fd5b600073ffffffffffffffffffffffffffffffffffffffff82169050919050565b60006200033e8262000311565b9050919050565b620003508162000331565b81146200035c57600080fd5b50565b600081519050620003708162000345565b92915050565b600080600080600060a086880312156200039557620003946200030c565b5b6000620003a5888289016200035f565b9550506020620003b8888289016200035f565b9450506040620003cb888289016200035f565b9350506060620003de888289016200035f565b9250506080620003f1888289016200035f565b9150509295509295909350565b61177d806200040e6000396000f3fe608060405234801561001057600080fd5b50600436106100415760003560e01c806310ab14d5146100465780639d735caf14610076578063eb909fd7146100a6575b600080fd5b610060600480360381019061005b919061090a565b6100d6565b60405161006d9190610a0f565b60405180910390f35b610090600480360381019061008b9190610a2a565b61019e565b60405161009d9190610c1c565b60405180910390f35b6100c060048036038101906100bb9190610a2a565b61025d565b6040516100cd9190610f9e565b60405180910390f35b6000600a60009054906101000a900473ffffffffffffffffffffffffffffffffffffffff1673ffffffffffffffffffffffffffffffffffffffff166310ab14d5898989898989896040518863ffffffff1660e01b815260040161013f9796959493929190611019565b602060405180830381600087803b15801561015957600080fd5b505af115801561016d573d6000803e3d6000fd5b505050506040513d601f19601f8201168201806040525081019061019191906110b2565b9050979650505050505050565b6101a661056d565b600960009054906101000a900473ffffffffffffffffffffffffffffffffffffffff1673ffffffffffffffffffffffffffffffffffffffff16639d735caf836040518263ffffffff1660e01b81526004016102019190610a0f565b60006040518083038186803b15801561021957600080fd5b505afa15801561022d573d6000803e3d6000fd5b505050506040513d6000823e3d601f19601f820116820180604052508101906102569190611316565b9050919050565b6102656105f5565b6000600960009054906101000a900473ffffffffffffffffffffffffffffffffffffffff1673ffffffffffffffffffffffffffffffffffffffff16639d735caf846040518263ffffffff1660e01b81526004016102c29190610a0f565b60006040518083038186803b1580156102da57600080fd5b505afa1580156102ee573d6000803e3d6000fd5b505050506040513d6000823e3d601f19601f820116820180604052508101906103179190611316565b90506000600860009054906101000a900473ffffffffffffffffffffffffffffffffffffffff1673ffffffffffffffffffffffffffffffffffffffff166387dbedfd83600001516040518263ffffffff1660e01b815260040161037a9190610a0f565b60006040518083038186803b15801561039257600080fd5b505afa1580156103a6573d6000803e3d6000fd5b505050506040513d6000823e3d601f19601f820116820180604052508101906103cf91906114c5565b90506000600760009054906101000a900473ffffffffffffffffffffffffffffffffffffffff1673ffffffffffffffffffffffffffffffffffffffff1663026ff3df84604001516040518263ffffffff1660e01b8152600401610432919061150e565b60006040518083038186803b15801561044a57600080fd5b505afa15801561045e573d6000803e3d6000fd5b505050506040513d6000823e3d601f19601f8201168201806040525081019061048791906115d5565b90506000600660009054906101000a900473ffffffffffffffffffffffffffffffffffffffff1673ffffffffffffffffffffffffffffffffffffffff16635f8818d085602001516040518263ffffffff1660e01b81526004016104ea919061150e565b60006040518083038186803b15801561050257600080fd5b505afa158015610516573d6000803e3d6000fd5b505050506040513d6000823e3d601f19601f8201168201806040525081019061053f91906116fe565b9050604051806080016040528082815260200183815260200184815260200185815250945050505050919050565b60405180610160016040528060008152602001600073ffffffffffffffffffffffffffffffffffffffff168152602001600073ffffffffffffffffffffffffffffffffffffffff168152602001600081526020016000815260200160608152602001606081526020016060815260200160001515815260200160608152602001600081525090565b6040518060800160405280610608610635565b815260200161061561067a565b81526020016106226106b1565b815260200161062f61056d565b81525090565b6040518060a0016040528060608152602001600073ffffffffffffffffffffffffffffffffffffffff1681526020016060815260200160608152602001600081525090565b604051806060016040528060608152602001600073ffffffffffffffffffffffffffffffffffffffff168152602001600081525090565b60405180610140016040528060008152602001600073ffffffffffffffffffffffffffffffffffffffff168152602001606081526020016000815260200160008152602001606081526020016060815260200160001515815260200160608152602001600081525090565b6000604051905090565b600080fd5b600080fd5b600073ffffffffffffffffffffffffffffffffffffffff82169050919050565b600061075b82610730565b9050919050565b61076b81610750565b811461077657600080fd5b50565b60008135905061078881610762565b92915050565b6000819050919050565b6107a18161078e565b81146107ac57600080fd5b50565b6000813590506107be81610798565b92915050565b600080fd5b600080fd5b6000601f19601f8301169050919050565b7f4e487b7100000000000000000000000000000000000000000000000000000000600052604160045260246000fd5b610817826107ce565b810181811067ffffffffffffffff82111715610836576108356107df565b5b80604052505050565b600061084961071c565b9050610855828261080e565b919050565b600067ffffffffffffffff821115610875576108746107df565b5b61087e826107ce565b9050602081019050919050565b82818337600083830152505050565b60006108ad6108a88461085a565b61083f565b9050828152602081018484840111156108c9576108c86107c9565b5b6108d484828561088b565b509392505050565b600082601f8301126108f1576108f06107c4565b5b813561090184826020860161089a565b91505092915050565b600080600080600080600060e0888a03121561092957610928610726565b5b60006109378a828b01610779565b97505060206109488a828b01610779565b96505060406109598a828b016107af565b955050606061096a8a828b016107af565b945050608088013567ffffffffffffffff81111561098b5761098a61072b565b5b6109978a828b016108dc565b93505060a088013567ffffffffffffffff8111156109b8576109b761072b565b5b6109c48a828b016108dc565b92505060c088013567ffffffffffffffff8111156109e5576109e461072b565b5b6109f18a828b016108dc565b91505092959891949750929550565b610a098161078e565b82525050565b6000602082019050610a246000830184610a00565b92915050565b600060208284031215610a4057610a3f610726565b5b6000610a4e848285016107af565b91505092915050565b610a608161078e565b82525050565b610a6f81610750565b82525050565b600081519050919050565b600082825260208201905092915050565b60005b83811015610aaf578082015181840152602081019050610a94565b83811115610abe576000848401525b50505050565b6000610acf82610a75565b610ad98185610a80565b9350610ae9818560208601610a91565b610af2816107ce565b840191505092915050565b60008115159050919050565b610b1281610afd565b82525050565b600061016083016000830151610b316000860182610a57565b506020830151610b446020860182610a66565b506040830151610b576040860182610a66565b506060830151610b6a6060860182610a57565b506080830151610b7d6080860182610a57565b5060a083015184820360a0860152610b958282610ac4565b91505060c083015184820360c0860152610baf8282610ac4565b91505060e083015184820360e0860152610bc98282610ac4565b915050610100830151610be0610100860182610b09565b50610120830151848203610120860152610bfa8282610ac4565b915050610140830151610c11610140860182610a57565b508091505092915050565b60006020820190508181036000830152610c368184610b18565b905092915050565b600060a0830160008301518482036000860152610c5b8282610ac4565b9150506020830151610c706020860182610a66565b5060408301518482036040860152610c888282610ac4565b91505060608301518482036060860152610ca28282610ac4565b9150506080830151610cb76080860182610a57565b508091505092915050565b6000610ccd82610730565b9050919050565b610cdd81610cc2565b82525050565b60006060830160008301518482036000860152610d008282610ac4565b9150506020830151610d156020860182610cd4565b506040830151610d286040860182610a57565b508091505092915050565b600061014083016000830151610d4c6000860182610a57565b506020830151610d5f6020860182610a66565b5060408301518482036040860152610d778282610ac4565b9150506060830151610d8c6060860182610a57565b506080830151610d9f6080860182610a57565b5060a083015184820360a0860152610db78282610ac4565b91505060c083015184820360c0860152610dd18282610ac4565b91505060e0830151610de660e0860182610b09565b50610100830151848203610100860152610e008282610ac4565b915050610120830151610e17610120860182610a57565b508091505092915050565b600061016083016000830151610e3b6000860182610a57565b506020830151610e4e6020860182610a66565b506040830151610e616040860182610a66565b506060830151610e746060860182610a57565b506080830151610e876080860182610a57565b5060a083015184820360a0860152610e9f8282610ac4565b91505060c083015184820360c0860152610eb98282610ac4565b91505060e083015184820360e0860152610ed38282610ac4565b915050610100830151610eea610100860182610b09565b50610120830151848203610120860152610f048282610ac4565b915050610140830151610f1b610140860182610a57565b508091505092915050565b60006080830160008301518482036000860152610f438282610c3e565b91505060208301518482036020860152610f5d8282610ce3565b91505060408301518482036040860152610f778282610d33565b91505060608301518482036060860152610f918282610e22565b9150508091505092915050565b60006020820190508181036000830152610fb88184610f26565b905092915050565b610fc981610750565b82525050565b600082825260208201905092915050565b6000610feb82610a75565b610ff58185610fcf565b9350611005818560208601610a91565b61100e816107ce565b840191505092915050565b600060e08201905061102e600083018a610fc0565b61103b6020830189610fc0565b6110486040830188610a00565b6110556060830187610a00565b81810360808301526110678186610fe0565b905081810360a083015261107b8185610fe0565b905081810360c083015261108f8184610fe0565b905098975050505050505050565b6000815190506110ac81610798565b92915050565b6000602082840312156110c8576110c7610726565b5b60006110d68482850161109d565b91505092915050565b600080fd5b600080fd5b6000815190506110f881610762565b92915050565b600061111161110c8461085a565b61083f565b90508281526020810184848401111561112d5761112c6107c9565b5b611138848285610a91565b509392505050565b600082601f830112611155576111546107c4565b5b81516111658482602086016110fe565b91505092915050565b61117781610afd565b811461118257600080fd5b50565b6000815190506111948161116e565b92915050565b600061016082840312156111b1576111b06110df565b5b6111bc61016061083f565b905060006111cc8482850161109d565b60008301525060206111e0848285016110e9565b60208301525060406111f4848285016110e9565b60408301525060606112088482850161109d565b606083015250608061121c8482850161109d565b60808301525060a082015167ffffffffffffffff8111156112405761123f6110e4565b5b61124c84828501611140565b60a08301525060c082015167ffffffffffffffff8111156112705761126f6110e4565b5b61127c84828501611140565b60c08301525060e082015167ffffffffffffffff8111156112a05761129f6110e4565b5b6112ac84828501611140565b60e0830152506101006112c184828501611185565b6101008301525061012082015167ffffffffffffffff8111156112e7576112e66110e4565b5b6112f384828501611140565b610120830152506101406113098482850161109d565b6101408301525092915050565b60006020828403121561132c5761132b610726565b5b600082015167ffffffffffffffff81111561134a5761134961072b565b5b6113568482850161119a565b91505092915050565b60006101408284031215611376576113756110df565b5b61138161014061083f565b905060006113918482850161109d565b60008301525060206113a5848285016110e9565b602083015250604082015167ffffffffffffffff8111156113c9576113c86110e4565b5b6113d584828501611140565b60408301525060606113e98482850161109d565b60608301525060806113fd8482850161109d565b60808301525060a082015167ffffffffffffffff811115611421576114206110e4565b5b61142d84828501611140565b60a08301525060c082015167ffffffffffffffff811115611451576114506110e4565b5b61145d84828501611140565b60c08301525060e061147184828501611185565b60e08301525061010082015167ffffffffffffffff811115611496576114956110e4565b5b6114a284828501611140565b610100830152506101206114b88482850161109d565b6101208301525092915050565b6000602082840312156114db576114da610726565b5b600082015167ffffffffffffffff8111156114f9576114f861072b565b5b6115058482850161135f565b91505092915050565b60006020820190506115236000830184610fc0565b92915050565b61153281610cc2565b811461153d57600080fd5b50565b60008151905061154f81611529565b92915050565b60006060828403121561156b5761156a6110df565b5b611575606061083f565b9050600082015167ffffffffffffffff811115611595576115946110e4565b5b6115a184828501611140565b60008301525060206115b584828501611540565b60208301525060406115c98482850161109d565b60408301525092915050565b6000602082840312156115eb576115ea610726565b5b600082015167ffffffffffffffff8111156116095761160861072b565b5b61161584828501611555565b91505092915050565b600060a08284031215611634576116336110df565b5b61163e60a061083f565b9050600082015167ffffffffffffffff81111561165e5761165d6110e4565b5b61166a84828501611140565b600083015250602061167e848285016110e9565b602083015250604082015167ffffffffffffffff8111156116a2576116a16110e4565b5b6116ae84828501611140565b604083015250606082015167ffffffffffffffff8111156116d2576116d16110e4565b5b6116de84828501611140565b60608301525060806116f28482850161109d565b60808301525092915050565b60006020828403121561171457611713610726565b5b600082015167ffffffffffffffff8111156117325761173161072b565b5b61173e8482850161161e565b9150509291505056fea264697066735822122005252d42b4e32c3c3bd004cd9a9ad938a3eaaeb5f6e439614cd29ba1e7712cb264736f6c63430008090033",
  "linkReferences": {},
  "deployedLinkReferences": {}
}