{
  "_format": "hh-sol-artifact-1",
  "contractName": "CertificateEndpoint",
  "sourceName": "contracts/endpoints/CertificateEndpoint.sol",
  "abi": [
    {
      "inputs": [
        {
          "internalType": "string",
          "name": "issuerStorageAddress",
          "type": "string"
        }
      ],
      "stateMutability": "nonpayable",
      "type": "constructor"
    },
    {
      "inputs": [],
      "name": "getCompleteCertById",
      "outputs": [
        {
          "components": [
            {
              "components": [
                {
                  "internalType": "uint256",
                  "name": "id",
                  "type": "uint256"
                },
                {
                  "internalType": "address payable",
                  "name": "issuer",
                  "type": "address"
                },
                {
                  "internalType": "address payable",
                  "name": "applicant",
                  "type": "address"
                },
                {
                  "internalType": "uint256",
                  "name": "createdAt",
                  "type": "uint256"
                },
                {
                  "internalType": "uint256",
                  "name": "accreditationId",
                  "type": "uint256"
                },
                {
                  "internalType": "string",
                  "name": "level",
                  "type": "string"
                },
                {
                  "internalType": "string",
                  "name": "eventId",
                  "type": "string"
                },
                {
                  "internalType": "string",
                  "name": "remarks",
                  "type": "string"
                },
                {
                  "internalType": "bool",
                  "name": "isRevoked",
                  "type": "bool"
                },
                {
                  "internalType": "string",
                  "name": "revokeReason",
                  "type": "string"
                },
                {
                  "internalType": "uint256",
                  "name": "revokeTime",
                  "type": "uint256"
                }
              ],
              "internalType": "struct Certificate",
              "name": "certificate",
              "type": "tuple"
            },
            {
              "components": [
                {
                  "internalType": "uint256",
                  "name": "id",
                  "type": "uint256"
                },
                {
                  "internalType": "address payable",
                  "name": "issuer",
                  "type": "address"
                },
                {
                  "internalType": "string",
                  "name": "title",
                  "type": "string"
                },
                {
                  "internalType": "uint256",
                  "name": "createdAt",
                  "type": "uint256"
                },
                {
                  "internalType": "uint256",
                  "name": "duration",
                  "type": "uint256"
                },
                {
                  "internalType": "string",
                  "name": "nature",
                  "type": "string"
                },
                {
                  "internalType": "string",
                  "name": "description",
                  "type": "string"
                },
                {
                  "internalType": "bool",
                  "name": "isRevoked",
                  "type": "bool"
                },
                {
                  "internalType": "string",
                  "name": "revokeReason",
                  "type": "string"
                },
                {
                  "internalType": "uint256",
                  "name": "revokeTime",
                  "type": "uint256"
                }
              ],
              "internalType": "struct Accreditation",
              "name": "accreditation",
              "type": "tuple"
            },
            {
              "components": [
                {
                  "internalType": "string",
                  "name": "name",
                  "type": "string"
                },
                {
                  "internalType": "address payable",
                  "name": "issuerAddress",
                  "type": "address"
                },
                {
                  "internalType": "string",
                  "name": "description",
                  "type": "string"
                },
                {
                  "internalType": "string",
                  "name": "logoUrl",
                  "type": "string"
                },
                {
                  "internalType": "uint256",
                  "name": "registeredAt",
                  "type": "uint256"
                }
              ],
              "internalType": "struct Issuer",
              "name": "issuer",
              "type": "tuple"
            },
            {
              "components": [
                {
                  "internalType": "string",
                  "name": "name",
                  "type": "string"
                },
                {
                  "internalType": "address",
                  "name": "applicantAddress",
                  "type": "address"
                },
                {
                  "internalType": "uint256",
                  "name": "registeredAt",
                  "type": "uint256"
                }
              ],
              "internalType": "struct Applicant",
              "name": "applicant",
              "type": "tuple"
            }
          ],
          "internalType": "struct CompleteCert",
          "name": "",
          "type": "tuple"
        }
      ],
      "stateMutability": "pure",
      "type": "function"
    }
  ],
  "bytecode": "0x60806040523480156200001157600080fd5b506040516200094a3803806200094a83398181016040528101906200003791906200021b565b336000806101000a81548173ffffffffffffffffffffffffffffffffffffffff021916908373ffffffffffffffffffffffffffffffffffffffff160217905550506200026c565b6000604051905090565b600080fd5b600080fd5b600080fd5b600080fd5b6000601f19601f8301169050919050565b7f4e487b7100000000000000000000000000000000000000000000000000000000600052604160045260246000fd5b620000e7826200009c565b810181811067ffffffffffffffff82111715620001095762000108620000ad565b5b80604052505050565b60006200011e6200007e565b90506200012c8282620000dc565b919050565b600067ffffffffffffffff8211156200014f576200014e620000ad565b5b6200015a826200009c565b9050602081019050919050565b60005b83811015620001875780820151818401526020810190506200016a565b8381111562000197576000848401525b50505050565b6000620001b4620001ae8462000131565b62000112565b905082815260208101848484011115620001d357620001d262000097565b5b620001e084828562000167565b509392505050565b600082601f8301126200020057620001ff62000092565b5b8151620002128482602086016200019d565b91505092915050565b60006020828403121562000234576200023362000088565b5b600082015167ffffffffffffffff8111156200025557620002546200008d565b5b6200026384828501620001e8565b91505092915050565b6106ce806200027c6000396000f3fe608060405234801561001057600080fd5b506004361061002b5760003560e01c806345b581b714610030575b600080fd5b61003861004e565b6040516100459190610676565b60405180910390f35b610056610059565b90565b604051806080016040528061006c610099565b8152602001610079610121565b815260200161008661018c565b81526020016100936101d1565b81525090565b60405180610160016040528060008152602001600073ffffffffffffffffffffffffffffffffffffffff168152602001600073ffffffffffffffffffffffffffffffffffffffff168152602001600081526020016000815260200160608152602001606081526020016060815260200160001515815260200160608152602001600081525090565b60405180610140016040528060008152602001600073ffffffffffffffffffffffffffffffffffffffff168152602001606081526020016000815260200160008152602001606081526020016060815260200160001515815260200160608152602001600081525090565b6040518060a0016040528060608152602001600073ffffffffffffffffffffffffffffffffffffffff1681526020016060815260200160608152602001600081525090565b604051806060016040528060608152602001600073ffffffffffffffffffffffffffffffffffffffff168152602001600081525090565b6000819050919050565b61021b81610208565b82525050565b600073ffffffffffffffffffffffffffffffffffffffff82169050919050565b600061024c82610221565b9050919050565b61025c81610241565b82525050565b600081519050919050565b600082825260208201905092915050565b60005b8381101561029c578082015181840152602081019050610281565b838111156102ab576000848401525b50505050565b6000601f19601f8301169050919050565b60006102cd82610262565b6102d7818561026d565b93506102e781856020860161027e565b6102f0816102b1565b840191505092915050565b60008115159050919050565b610310816102fb565b82525050565b60006101608301600083015161032f6000860182610212565b5060208301516103426020860182610253565b5060408301516103556040860182610253565b5060608301516103686060860182610212565b50608083015161037b6080860182610212565b5060a083015184820360a086015261039382826102c2565b91505060c083015184820360c08601526103ad82826102c2565b91505060e083015184820360e08601526103c782826102c2565b9150506101008301516103de610100860182610307565b506101208301518482036101208601526103f882826102c2565b91505061014083015161040f610140860182610212565b508091505092915050565b6000610140830160008301516104336000860182610212565b5060208301516104466020860182610253565b506040830151848203604086015261045e82826102c2565b91505060608301516104736060860182610212565b5060808301516104866080860182610212565b5060a083015184820360a086015261049e82826102c2565b91505060c083015184820360c08601526104b882826102c2565b91505060e08301516104cd60e0860182610307565b506101008301518482036101008601526104e782826102c2565b9150506101208301516104fe610120860182610212565b508091505092915050565b600060a083016000830151848203600086015261052682826102c2565b915050602083015161053b6020860182610253565b506040830151848203604086015261055382826102c2565b9150506060830151848203606086015261056d82826102c2565b91505060808301516105826080860182610212565b508091505092915050565b600061059882610221565b9050919050565b6105a88161058d565b82525050565b600060608301600083015184820360008601526105cb82826102c2565b91505060208301516105e0602086018261059f565b5060408301516105f36040860182610212565b508091505092915050565b6000608083016000830151848203600086015261061b8282610316565b91505060208301518482036020860152610635828261041a565b9150506040830151848203604086015261064f8282610509565b9150506060830151848203606086015261066982826105ae565b9150508091505092915050565b6000602082019050818103600083015261069081846105fe565b90509291505056fea2646970667358221220b26dea94c86b0ab208d7a5009a836352a587654b4f5673dc72cdbadbaf0fa07e64736f6c63430008090033",
  "linkReferences": {},
  "deployedLinkReferences": {}
}