{
  "_format": "hh-sol-artifact-1",
  "contractName": "IssuerEndpoint",
  "sourceName": "contracts/endpoints/IssuerEndpoint.sol",
  "abi": [
    {
      "inputs": [
        {
          "internalType": "address",
          "name": "issuerStorageAddress",
          "type": "address"
        }
      ],
      "stateMutability": "nonpayable",
      "type": "constructor"
    },
    {
      "inputs": [
        {
          "internalType": "address payable",
          "name": "issuerAddress",
          "type": "address"
        }
      ],
      "name": "getIssuerByAddress",
      "outputs": [
        {
          "components": [
            {
              "internalType": "string",
              "name": "name",
              "type": "string"
            },
            {
              "internalType": "address payable",
              "name": "issuerAddress",
              "type": "address"
            },
            {
              "internalType": "string",
              "name": "description",
              "type": "string"
            },
            {
              "internalType": "string",
              "name": "logoUrl",
              "type": "string"
            },
            {
              "internalType": "uint256",
              "name": "createdAt",
              "type": "uint256"
            }
          ],
          "internalType": "struct Issuer",
          "name": "",
          "type": "tuple"
        }
      ],
      "stateMutability": "view",
      "type": "function"
    },
    {
      "inputs": [
        {
          "internalType": "address payable",
          "name": "issuerAddress",
          "type": "address"
        },
        {
          "internalType": "string",
          "name": "name",
          "type": "string"
        },
        {
          "internalType": "string",
          "name": "description",
          "type": "string"
        },
        {
          "internalType": "string",
          "name": "logoUrl",
          "type": "string"
        }
      ],
      "name": "registerIssuer",
      "outputs": [
        {
          "internalType": "bool",
          "name": "",
          "type": "bool"
        }
      ],
      "stateMutability": "nonpayable",
      "type": "function"
    }
  ],
  "bytecode": "0x608060405234801561001057600080fd5b50604051610b65380380610b658339818101604052810190610032919061015d565b336000806101000a81548173ffffffffffffffffffffffffffffffffffffffff021916908373ffffffffffffffffffffffffffffffffffffffff16021790555080600160006101000a81548173ffffffffffffffffffffffffffffffffffffffff021916908373ffffffffffffffffffffffffffffffffffffffff16021790555080600260006101000a81548173ffffffffffffffffffffffffffffffffffffffff021916908373ffffffffffffffffffffffffffffffffffffffff1602179055505061018a565b600080fd5b600073ffffffffffffffffffffffffffffffffffffffff82169050919050565b600061012a826100ff565b9050919050565b61013a8161011f565b811461014557600080fd5b50565b60008151905061015781610131565b92915050565b600060208284031215610173576101726100fa565b5b600061018184828501610148565b91505092915050565b6109cc806101996000396000f3fe608060405234801561001057600080fd5b50600436106100365760003560e01c806331bb017a1461003b5780635f8818d01461006b575b600080fd5b6100556004803603810190610050919061033e565b61009b565b6040516100629190610422565b60405180910390f35b6100856004803603810190610080919061043d565b610163565b60405161009291906105af565b60405180910390f35b6000600260009054906101000a900473ffffffffffffffffffffffffffffffffffffffff1673ffffffffffffffffffffffffffffffffffffffff166331bb017a898989898989896040518863ffffffff1660e01b8152600401610104979695949392919061062d565b602060405180830381600087803b15801561011e57600080fd5b505af1158015610132573d6000803e3d6000fd5b505050506040513d601f19601f8201168201806040525081019061015691906106b9565b9050979650505050505050565b61016b610222565b600260009054906101000a900473ffffffffffffffffffffffffffffffffffffffff1673ffffffffffffffffffffffffffffffffffffffff16635f8818d0836040518263ffffffff1660e01b81526004016101c691906106e6565b60006040518083038186803b1580156101de57600080fd5b505afa1580156101f2573d6000803e3d6000fd5b505050506040513d6000823e3d601f19601f8201168201806040525081019061021b919061094d565b9050919050565b6040518060a0016040528060608152602001600073ffffffffffffffffffffffffffffffffffffffff1681526020016060815260200160608152602001600081525090565b6000604051905090565b600080fd5b600080fd5b600073ffffffffffffffffffffffffffffffffffffffff82169050919050565b60006102a68261027b565b9050919050565b6102b68161029b565b81146102c157600080fd5b50565b6000813590506102d3816102ad565b92915050565b600080fd5b600080fd5b600080fd5b60008083601f8401126102fe576102fd6102d9565b5b8235905067ffffffffffffffff81111561031b5761031a6102de565b5b602083019150836001820283011115610337576103366102e3565b5b9250929050565b60008060008060008060006080888a03121561035d5761035c610271565b5b600061036b8a828b016102c4565b975050602088013567ffffffffffffffff81111561038c5761038b610276565b5b6103988a828b016102e8565b9650965050604088013567ffffffffffffffff8111156103bb576103ba610276565b5b6103c78a828b016102e8565b9450945050606088013567ffffffffffffffff8111156103ea576103e9610276565b5b6103f68a828b016102e8565b925092505092959891949750929550565b60008115159050919050565b61041c81610407565b82525050565b60006020820190506104376000830184610413565b92915050565b60006020828403121561045357610452610271565b5b6000610461848285016102c4565b91505092915050565b600081519050919050565b600082825260208201905092915050565b60005b838110156104a4578082015181840152602081019050610489565b838111156104b3576000848401525b50505050565b6000601f19601f8301169050919050565b60006104d58261046a565b6104df8185610475565b93506104ef818560208601610486565b6104f8816104b9565b840191505092915050565b61050c8161029b565b82525050565b6000819050919050565b61052581610512565b82525050565b600060a083016000830151848203600086015261054882826104ca565b915050602083015161055d6020860182610503565b506040830151848203604086015261057582826104ca565b9150506060830151848203606086015261058f82826104ca565b91505060808301516105a4608086018261051c565b508091505092915050565b600060208201905081810360008301526105c9818461052b565b905092915050565b6105da8161029b565b82525050565b600082825260208201905092915050565b82818337600083830152505050565b600061060c83856105e0565b93506106198385846105f1565b610622836104b9565b840190509392505050565b6000608082019050610642600083018a6105d1565b818103602083015261065581888a610600565b9050818103604083015261066a818688610600565b9050818103606083015261067f818486610600565b905098975050505050505050565b61069681610407565b81146106a157600080fd5b50565b6000815190506106b38161068d565b92915050565b6000602082840312156106cf576106ce610271565b5b60006106dd848285016106a4565b91505092915050565b60006020820190506106fb60008301846105d1565b92915050565b600080fd5b7f4e487b7100000000000000000000000000000000000000000000000000000000600052604160045260246000fd5b61073e826104b9565b810181811067ffffffffffffffff8211171561075d5761075c610706565b5b80604052505050565b6000610770610267565b905061077c8282610735565b919050565b600080fd5b600080fd5b600067ffffffffffffffff8211156107a6576107a5610706565b5b6107af826104b9565b9050602081019050919050565b60006107cf6107ca8461078b565b610766565b9050828152602081018484840111156107eb576107ea610786565b5b6107f6848285610486565b509392505050565b600082601f830112610813576108126102d9565b5b81516108238482602086016107bc565b91505092915050565b60008151905061083b816102ad565b92915050565b61084a81610512565b811461085557600080fd5b50565b60008151905061086781610841565b92915050565b600060a0828403121561088357610882610701565b5b61088d60a0610766565b9050600082015167ffffffffffffffff8111156108ad576108ac610781565b5b6108b9848285016107fe565b60008301525060206108cd8482850161082c565b602083015250604082015167ffffffffffffffff8111156108f1576108f0610781565b5b6108fd848285016107fe565b604083015250606082015167ffffffffffffffff81111561092157610920610781565b5b61092d848285016107fe565b606083015250608061094184828501610858565b60808301525092915050565b60006020828403121561096357610962610271565b5b600082015167ffffffffffffffff81111561098157610980610276565b5b61098d8482850161086d565b9150509291505056fea26469706673582212209589e9afda25f630813672e1798c54b62b41213c6d3394b23b7375d927a41eef64736f6c63430008090033",
  "linkReferences": {},
  "deployedLinkReferences": {}
}