{
  "_format": "hh-sol-artifact-1",
  "contractName": "IssuerEndpoint",
  "sourceName": "contracts/endpoints/IssuerEndpoint.sol",
  "abi": [
    {
      "inputs": [
        {
          "internalType": "address",
          "name": "issuerStorageAddress",
          "type": "address"
        }
      ],
      "stateMutability": "nonpayable",
      "type": "constructor"
    },
    {
      "anonymous": false,
      "inputs": [
        {
          "indexed": false,
          "internalType": "address payable",
          "name": "issuerAddress",
          "type": "address"
        },
        {
          "indexed": false,
          "internalType": "string",
          "name": "name",
          "type": "string"
        },
        {
          "indexed": false,
          "internalType": "string",
          "name": "description",
          "type": "string"
        },
        {
          "indexed": false,
          "internalType": "string",
          "name": "logoUrl",
          "type": "string"
        },
        {
          "indexed": false,
          "internalType": "uint256",
          "name": "createdAt",
          "type": "uint256"
        }
      ],
      "name": "RegisterIssuer",
      "type": "event"
    },
    {
      "inputs": [
        {
          "internalType": "address payable",
          "name": "issuerAddress",
          "type": "address"
        }
      ],
      "name": "getIssuerByAddress",
      "outputs": [
        {
          "components": [
            {
              "internalType": "string",
              "name": "name",
              "type": "string"
            },
            {
              "internalType": "address payable",
              "name": "issuerAddress",
              "type": "address"
            },
            {
              "internalType": "string",
              "name": "description",
              "type": "string"
            },
            {
              "internalType": "string",
              "name": "logoUrl",
              "type": "string"
            },
            {
              "internalType": "uint256",
              "name": "createdAt",
              "type": "uint256"
            }
          ],
          "internalType": "struct Issuer",
          "name": "",
          "type": "tuple"
        }
      ],
      "stateMutability": "view",
      "type": "function"
    },
    {
      "inputs": [
        {
          "internalType": "string",
          "name": "name",
          "type": "string"
        },
        {
          "internalType": "string",
          "name": "description",
          "type": "string"
        },
        {
          "internalType": "string",
          "name": "logoUrl",
          "type": "string"
        }
      ],
      "name": "registerIssuer",
      "outputs": [],
      "stateMutability": "nonpayable",
      "type": "function"
    }
  ],
  "bytecode": "0x608060405234801561001057600080fd5b50604051610b7c380380610b7c8339818101604052810190610032919061015d565b336000806101000a81548173ffffffffffffffffffffffffffffffffffffffff021916908373ffffffffffffffffffffffffffffffffffffffff16021790555080600160006101000a81548173ffffffffffffffffffffffffffffffffffffffff021916908373ffffffffffffffffffffffffffffffffffffffff16021790555080600260006101000a81548173ffffffffffffffffffffffffffffffffffffffff021916908373ffffffffffffffffffffffffffffffffffffffff1602179055505061018a565b600080fd5b600073ffffffffffffffffffffffffffffffffffffffff82169050919050565b600061012a826100ff565b9050919050565b61013a8161011f565b811461014557600080fd5b50565b60008151905061015781610131565b92915050565b600060208284031215610173576101726100fa565b5b600061018184828501610148565b91505092915050565b6109e3806101996000396000f3fe608060405234801561001057600080fd5b50600436106100365760003560e01c80635f8818d01461003b5780638096373e1461006b575b600080fd5b61005560048036038101906100509190610317565b610087565b6040516100629190610489565b60405180910390f35b61008560048036038101906100809190610510565b610146565b005b61008f610260565b600260009054906101000a900473ffffffffffffffffffffffffffffffffffffffff1673ffffffffffffffffffffffffffffffffffffffff16635f8818d0836040518263ffffffff1660e01b81526004016100ea91906105d3565b60006040518083038186803b15801561010257600080fd5b505afa158015610116573d6000803e3d6000fd5b505050506040513d6000823e3d601f19601f8201168201806040525081019061013f919061083a565b9050919050565b60003390506000600260009054906101000a900473ffffffffffffffffffffffffffffffffffffffff1673ffffffffffffffffffffffffffffffffffffffff1663b88ece3e838a8a8a8a8a8a6040518863ffffffff1660e01b81526004016101b497969594939291906108d0565b600060405180830381600087803b1580156101ce57600080fd5b505af11580156101e2573d6000803e3d6000fd5b505050506040513d6000823e3d601f19601f8201168201806040525081019061020b919061083a565b90507f4094cf4c43c0a91e40dd2472e4ddbab69379a61eb8194598c1cf02493700d44f82898989898989886080015160405161024e98979695949392919061093f565b60405180910390a15050505050505050565b6040518060a0016040528060608152602001600073ffffffffffffffffffffffffffffffffffffffff1681526020016060815260200160608152602001600081525090565b6000604051905090565b600080fd5b600080fd5b600073ffffffffffffffffffffffffffffffffffffffff82169050919050565b60006102e4826102b9565b9050919050565b6102f4816102d9565b81146102ff57600080fd5b50565b600081359050610311816102eb565b92915050565b60006020828403121561032d5761032c6102af565b5b600061033b84828501610302565b91505092915050565b600081519050919050565b600082825260208201905092915050565b60005b8381101561037e578082015181840152602081019050610363565b8381111561038d576000848401525b50505050565b6000601f19601f8301169050919050565b60006103af82610344565b6103b9818561034f565b93506103c9818560208601610360565b6103d281610393565b840191505092915050565b6103e6816102d9565b82525050565b6000819050919050565b6103ff816103ec565b82525050565b600060a083016000830151848203600086015261042282826103a4565b915050602083015161043760208601826103dd565b506040830151848203604086015261044f82826103a4565b9150506060830151848203606086015261046982826103a4565b915050608083015161047e60808601826103f6565b508091505092915050565b600060208201905081810360008301526104a38184610405565b905092915050565b600080fd5b600080fd5b600080fd5b60008083601f8401126104d0576104cf6104ab565b5b8235905067ffffffffffffffff8111156104ed576104ec6104b0565b5b602083019150836001820283011115610509576105086104b5565b5b9250929050565b6000806000806000806060878903121561052d5761052c6102af565b5b600087013567ffffffffffffffff81111561054b5761054a6102b4565b5b61055789828a016104ba565b9650965050602087013567ffffffffffffffff81111561057a576105796102b4565b5b61058689828a016104ba565b9450945050604087013567ffffffffffffffff8111156105a9576105a86102b4565b5b6105b589828a016104ba565b92509250509295509295509295565b6105cd816102d9565b82525050565b60006020820190506105e860008301846105c4565b92915050565b600080fd5b7f4e487b7100000000000000000000000000000000000000000000000000000000600052604160045260246000fd5b61062b82610393565b810181811067ffffffffffffffff8211171561064a576106496105f3565b5b80604052505050565b600061065d6102a5565b90506106698282610622565b919050565b600080fd5b600080fd5b600067ffffffffffffffff821115610693576106926105f3565b5b61069c82610393565b9050602081019050919050565b60006106bc6106b784610678565b610653565b9050828152602081018484840111156106d8576106d7610673565b5b6106e3848285610360565b509392505050565b600082601f830112610700576106ff6104ab565b5b81516107108482602086016106a9565b91505092915050565b600081519050610728816102eb565b92915050565b610737816103ec565b811461074257600080fd5b50565b6000815190506107548161072e565b92915050565b600060a082840312156107705761076f6105ee565b5b61077a60a0610653565b9050600082015167ffffffffffffffff81111561079a5761079961066e565b5b6107a6848285016106eb565b60008301525060206107ba84828501610719565b602083015250604082015167ffffffffffffffff8111156107de576107dd61066e565b5b6107ea848285016106eb565b604083015250606082015167ffffffffffffffff81111561080e5761080d61066e565b5b61081a848285016106eb565b606083015250608061082e84828501610745565b60808301525092915050565b6000602082840312156108505761084f6102af565b5b600082015167ffffffffffffffff81111561086e5761086d6102b4565b5b61087a8482850161075a565b91505092915050565b600082825260208201905092915050565b82818337600083830152505050565b60006108af8385610883565b93506108bc838584610894565b6108c583610393565b840190509392505050565b60006080820190506108e5600083018a6105c4565b81810360208301526108f881888a6108a3565b9050818103604083015261090d8186886108a3565b905081810360608301526109228184866108a3565b905098975050505050505050565b610939816103ec565b82525050565b600060a082019050610954600083018b6105c4565b818103602083015261096781898b6108a3565b9050818103604083015261097c8187896108a3565b905081810360608301526109918185876108a3565b90506109a06080830184610930565b999850505050505050505056fea26469706673582212207489e1cfec496412fd3ee0f3f2a914b382b5ac0239d4c43e2cbd0d23b29e9d7f64736f6c63430008090033",
  "linkReferences": {},
  "deployedLinkReferences": {}
}